:100000000C94DA340C940B350C940B350C940B35A2
:100010000C940B350C940B350C940B350C940B3560
:100020000C940B350C940B350C940B350C940B3550
:100030000C940B350D946A6E0C940B350C940B35A7
:100040000C940B350C94F0F20C940B350C940B358E
:100050000C940B350C940B350D94900C0D947F671C
:100060000C940B350C94A13F0C940B350C940B3570
:100070000C940B350C940B350C940B350C940B3500
:100080000C940B350C940B350C940B350C940B35F0
:100090000C940B350C940B350C940B350C940B35E0
:1000A0000C940B350C940B350C940B350C940B35D0
:1000B0000C940B350C940B350C940B350C940B35C0
:1000C0000C940B350C940B350C940B350C940B35B0
:1000D0000C940B350C940B350C940B350C940B35A0
:1000E0000C940B350B0169013D0109011B012F0126
:1000F0005F01D100F700D5006B015901DB00F10071
:10010000DD00E700510163011501EF00EB004D0137
:100110001F01D3002D012B01130123010F016501E4
:100120003701FD0041012D0103015D01FF00E900E0
:10013000ED00DF000D01F900F30017013301F500B8
:100140000701D70043014F012901F3003501570191
:100150004901084AD73B3BCE016E84BCBFFDC12F8D
:100160003D6C74319ABD56833DDA3D00C77F11BEA8
:10017000D9E4BB4C3E916BAAAABE000000803F05AB
:10018000A84CCDB2D44EB93836A9020C50B99186DC
:1001900088083CA6AAAA2ABE000000803F000D9451
:1001A00041200D945B0D0D94CC680D94610D0D9460
:1001B00080690D94471D0D94913A0D94CD3A0D949C
:1001C00059690D94B1360D94DE5D0D94D9290D94C5
:1001D000FC3A0D9467690D94B3680D946A690D94A7
:1001E000AE680D94AE3A0D94A1690D9478690D94A2
:1001F0005D0D0D9463690D94FC620D9413690D946B
:100200003B690D94D4150D9427690D94C4380D9451
:100210007C690D94150D0D94DD0C0D945D690D94A4
:10022000F0680D94386A0D94DE680D942A3B0D94A5
:100230006E690D947D540D942F0D0D940D110D9438
:10024000C2680D94F91A0D94E6680D9487140D9404
:1002500093140D948E690D94D6680D9445690D9490
:100260003D0D0D9408380D9472690D9494690D94A8
:1002700004690D949E470D9463440D94070D0D94ED
:100280008B120D941D690D9486690D94E42C0D94C8
:1002900005350D949C690D94FF370D94B8680D9445
:1002A0008A690D94063B0D949E2E0D9411380D9481
:1002B00098690D94773A0D94FE390D9431690D9437
:1002C000570D0D9462140D94103B0D94FA680D9423
:1002D0001A380D94EB0C0D94690D0D941D4E486168
:1002E0007264636F6465642044656661756C742034
:1002F00053657474696E6773204C6F616465640044
:1003000053746F7265642073657474696E677320CB
:100310007265747269657665640046696C616D65C5
:100320006E742073657474696E67733A20446973E0
:1003300061626C6564002020204D32303020440022
:1003400046696C616D656E742073657474696E675F
:10035000733A002020204D3230392053004175740B
:100360006F2D526574726163743A20533D3020746E
:100370006F2064697361626C652C203120746F207A
:10038000696E7465727072657420657874727564D4
:10039000652D6F6E6C79206D6F76657320617320AB
:1003A0007265747261637473206F72207265636F1B
:1003B000766572696573002046002020204D32303A
:1003C000382053005265636F7665723A20533D457D
:1003D00078747261206C656E67746820286D6D2971
:1003E00020463A537065656420286D6D2F6D290095
:1003F000205A002046002020204D32303720530064
:10040000526574726163743A20533D4C656E677433
:100410006820286D6D2920463A5370656564202850
:100420006D6D2F6D29205A3A205A4C696674202828
:100430006D6D29002044002049002020204D3330DC
:10044000312050005049442073657474696E67739D
:100450003A00205A0020590020204D3230362058D2
:1004600000486F6D65206F666673657420286D6D3A
:10047000293A00204500205A002059002058002029
:10048000420020540020204D32303520530041647A
:1004900076616E636564207661726961626C657312
:1004A0003A20533D4D696E206665656472617465DE
:1004B00020286D6D2F73292C20543D4D696E2074BA
:1004C000726176656C20666565647261746520286A
:1004D0006D6D2F73292C20423D6D696E696D756DB0
:1004E000207365676D656E742074696D6520286D75
:1004F00073292C20583D6D6178696D756D205859B0
:10050000206A65726B20286D6D2F73292C20205A6C
:100510003D6D6178696D756D205A206A65726B203A
:10052000286D6D2F73292C2020453D6D6178696DF4
:10053000756D2045206A65726B20286D6D2F7329BB
:100540000020540020204D3230342053004163639A
:10055000656C65726174696F6E3A20533D616363C7
:10056000656C65726174696F6E2C20543D726574A0
:100570007261637420616363656C65726174696F35
:100580006E00204500205A0020590020204D3230B6
:10059000312058004D6178696D756D204163636548
:1005A0006C65726174696F6E20286D6D2F733229CE
:1005B0003A00204500205A0020590020204D3230BA
:1005C000332058004D6178696D756D2066656564EE
:1005D000726174657320286D6D2F73293A00204570
:1005E00000205A0020590020204D39322058005355
:1005F000746570732070657220756E69743A00536B
:10060000657474696E67732053746F726564002239
:10061000004D3232302053256900203A2000004C32
:10062000414E472053454C20464F524345440022FB
:1006300000205A3A0020593A0020453A00205A3A00
:100640000020593A00583A0020002E0020423A007B
:1006500020453A00543A0020573A0020453A0054C9
:100660003A002042403A0020403A00202F003A0051
:10067000205400202F0020423A00202F006F6B20D2
:10068000543A002569206D696E2C20256920736518
:1006900063004D65736820626564206C6576656CE7
:1006A000696E67206E6F74206163746976652E00D1
:1006B0000A002020000A4D65617375726564207020
:1006C0006F696E74733A000A5A20736561726368C9
:1006D000206865696768743A20002C004E756D20AB
:1006E000582C593A2000206D6963726F6E73004573
:1006F000786365737369766520626564206C6576DE
:10070000656C696E6720636F7272656374696F6E82
:100710003A2000473238205730000A00205A3A2049
:100720000020593A200020583A2000256920686F9F
:10073000757273202569206D696E75746573005438
:10074000494D454F55543A004D313130004D323905
:10075000002055706C6F616420696E2070726F6745
:100760007265737300466163746F727920524553EA
:100770004554004E6F7620323020323031370043FE
:100780006F6D70696C65643A20002849414E204BBA
:100790004F482C2055424320524150494429004E95
:1007A0006F7620323020323031372031303A3039D4
:1007B0003A323000737461727400250020202020CA
:1007C0002020002020202020200045524153494E67
:1007D0004720616C6C206461746100466163746FD2
:1007E00072792052455345540022206661696C6538
:1007F000643A204275666665722066756C6C2100ED
:10080000456E717565696E6720746F207468652028
:1008100066726F6E743A2022002200456E71756513
:10082000696E6720746F207468652066726F6E74DD
:100830003A20220022206661696C65643A20427584
:10084000666665722066756C6C21002200FFFFFFF2
:100850000000A0400000A0400000004000007A43DB
:10086000333354439AD9454300000000CDCC0CC02B
:100870009A99193E00007A43000052430000464313
:1008800000000000CDCC0CC09A99193E6563686FDA
:100890003A004572726F723A0000002110422063E4
:1008A000308440A550C660E770088129914AA16B49
:1008B000B18CC1ADD1CEE1EFF131121002733252E1
:1008C00022B5529442F772D662399318837BB35A99
:1008D000A3BDD39CC3FFF3DEE362244334200401B1
:1008E00014E664C774A44485546AA54BB5288509E9
:1008F00095EEE5CFF5ACC58DD55336722611163081
:1009000006D776F6669556B4465BB77AA719973838
:1009100087DFF7FEE79DD7BCC7C448E5588668A7C0
:10092000784008611802282338CCC9EDD98EE9AF88
:10093000F9488969990AA92BB9F55AD44AB77A9620
:100940006A711A500A333A122AFDDBDCCBBFFB9ED8
:10095000EB799B588B3BBB1AABA66C877CE44CC5F0
:100960005C222C033C600C411CAEED8FFDECCDCD28
:10097000DD2AAD0BBD688D499D977EB66ED55EF4C0
:100980004E133E322E511E700E9FFFBEEFDDDFFC78
:10099000CF1BBF3AAF599F788F8891A981CAB1EB1D
:1009A000A10CD12DC14EF16FE18010A100C230E346
:1009B000200450254046706760B9839893FBA3DA02
:1009C000B33DC31CD37FE35EF3B1029012F322D296
:1009D000323542145277625672EAB5CBA5A8958992
:1009E000856EF54FE52CD50DC5E234C324A01481E6
:1009F000046674476424540544DBA7FAB79987B8A2
:100A0000975FE77EF71DC73CD7D326F2369106B035
:100A10001657667676154634564CD96DC90EF92FA1
:100A2000E9C899E9898AB9ABA94458654806782785
:100A300068C018E1088238A3287DCB5CDB3FEB1E41
:100A4000FBF98BD89BBBAB9ABB754A545A376A16D5
:100A50007AF10AD01AB32A923A2EFD0FED6CDD4DD1
:100A6000CDAABD8BADE89DC98D267C076C645C4525
:100A70004CA23C832CE01CC10C1FEF3EFF5DCF7CE1
:100A8000DF9BAFBABFD98FF89F176E367E554E7475
:100A90005E932EB23ED10EF01E7C3C3E5E2B3D3F5F
:100AA0002F5B5D3B2C2A225C004D383420582059A6
:100AB000205A2045004D3234004D3233202573003A
:100AC0006175746F25692E67000A002F000A002ED9
:100AD0000044656C6574696F6E206661696C65645D
:100AE0002C2046696C653A200046696C6520646577
:100AF0006C657465643A002E002E002E002E004EA8
:100B00006F772066726573682066696C653A2000AD
:100B10004E6F7720646F696E672066696C653A2056
:100B2000002220706F73002220706172656E743A2B
:100B30002200535542524F5554494E452043414C93
:100B40004C207461726765743A2200747279696E20
:100B50006720746F2063616C6C207375622D67630E
:100B60006F64652066696C657320776974682074AA
:100B70006F6F206D616E79206C6576656C732E20C9
:100B80004D4158206C6576656C2069733A0050724F
:100B9000757361206933204D4B3220636C306E6574
:100BA0006420676F746F776100507275736120699C
:100BB00033204D4B3220636C306E6564206C69735A
:100BC0007461005072757361206933204D4B32207F
:100BD000636C306E656470726F6E74612E0050725B
:100BE000757361206933204D4B3220636C306E6524
:100BF00064206F6B005072757361206933204D4B18
:100C00003220636C306E65642072656164792E00F9
:100C10007A5F6D696E3A20007A5F6D61783A2000E4
:100C20005A204F666673657400795F6D696E3A206D
:100C300000795F6D61783A200054616B0053690060
:100C4000536900416E6F0059657300785F6D696E7E
:100C50003A2000785F6D61783A2000205761746314
:100C600068646F6720526573657400496E666F72C1
:100C70006D61636A65004D6F6E69746F72697A6148
:100C8000720053636865726D61746120696E666F8E
:100C900000496E666F726D61636500496E666F2014
:100CA00073637265656E0057616974696E6720666B
:100CB0006F722068656174657220616E6420626580
:100CC0006420636F6F6C696E670045737065726155
:100CD0006E646F206F7264656E6573004174746535
:100CE0006E64656E646F207574656E74650057611F
:100CF000697420666F7220757365722E2E2E0057F0
:100D0000796A61632066696C616D656E7400536118
:100D10006361722066696C616D656E746F00536308
:100D200061726963612066696C616D656E746F00E4
:100D300056796A6D6F75742066696C616D656E7445
:100D400000556E6C6F61642066696C616D656E74D0
:100D500000556E6B6E6F776E20636F6D6D616E64A4
:100D60003A2022004E617374726F696300416A75A4
:100D700073746172005265676F6C61004C616469E5
:100D8000740054756E65006B617274612053445B2E
:100D9000466C73684169725D0053442063617264FC
:100DA000205B466C73684169725D006B61727461AF
:100DB000205344205B6E6F726D616C5D0053442064
:100DC00063617264205B6E6F726D616C5D0054656F
:100DD0006D70657261747572610054656D706572D5
:100DE00061747572610054656D70657261747572BD
:100DF00061005465706C6F74610054656D7065724C
:100E0000617475726500506F6D6F6300506F647030
:100E10006F726100537570706F7274005A617472F2
:100E20007A796D6163206472756B00446574656ED8
:100E3000657220696D70726573696F6E00417272C0
:100E400065737461207374616D7061005A617374AD
:100E500061766974207469736B0053746F702070CD
:100E600072696E74005041524144410041525245F2
:100E7000535441544F2E0053544F505045442E204C
:100E800000537465707261746520746F6F206869B7
:100E900067683A2000437A61732063616C6B6F77F7
:100EA000697479203A005469656D706F20746F74AD
:100EB000616C203A0054656D706F207374616D70C1
:100EC0006120746F743A0043656C6B6F76792063B0
:100ED0006173203A00546F74616C207072696E7493
:100EE0002074696D65203A0046696C616D656E74A9
:100EF000206C61637A6E6965203A0046696C616DA9
:100F0000656E746F20746F74616C3A0046696C6131
:100F10006D656E746F20746F743A0046696C616D14
:100F2000656E742063656C6B656D203A00546F7458
:100F3000616C2066696C616D656E74203A00437A5D
:100F40006173206472756B75203A202000546965C6
:100F50006D706F20646520696D702E3A0054656D68
:100F6000706F206469207374616D70613A00436131
:100F700073207469736B75203A2020005072696E7B
:100F8000742074696D653A20200046696C616D6556
:100F90006E74203A20200046696C616D656E746F36
:100FA000203A20200046696C616D656E746F207573
:100FB0007361746F3A0046696C616D656E74203AB6
:100FC00020200046696C616D656E742075736564E0
:100FD0003A20200053746174797374796B61202016
:100FE0000045737461646973746963612020005300
:100FF00074617469737469636865005374617469BA
:101000007374696B6120200053746174697374692F
:1010100063732020004572726F72202D20737461FB
:10102000746963206D656D6F7279206861732062E9
:1010300065656E206F7665727772697474656E008F
:10104000507265646B6F73630056656C6F6369649F
:1010500061640056656C6F636974610052796368FE
:101060006C6F73740053706565640020536F667411
:1010700077617265205265736574004D6F6420203E
:1010800020202020205B63696368795D004D6F64D8
:101090006F2020205B73696C656E63696F5D004D26
:1010A0006F646F205B73696C656E7A696F736F5DD7
:1010B000004D6F64202020202020205B746963682D
:1010C000795D004D6F646520202020205B73696C82
:1010D000656E745D004D6F64205B77207779646185
:1010E0006A6E6F73635D004D6F646F205B6D61733B
:1010F00020667565727A615D004D6F6465205B7076
:1011000072657374616E74655D004D6F6420205B61
:101110007679732E2076796B6F6E5D004D6F646506
:10112000205B6869676820706F7765725D00506F3B
:101130006B617A206B72616E636F776B6900456ECD
:1011400073656E6120746F70652066696E616C00F6
:10115000537461746F2066696E65636F72736100AA
:1011600053746176206B6F6E632E207370696E2EE0
:101170000053686F7720656E642073746F7073001E
:10118000557374617769656E696100416A7573743E
:101190006500496D706F7374617A696F6E69004E96
:1011A0006173746176656E690053657474696E6706
:1011B0007300426C616420706F6C61637A656E6964
:1011C00061004572726F7220646520636F6E65788E
:1011D000696F6E004572726F7265206361626C6147
:1011E0006767696F004368796261207A61706F6A2E
:1011F000656E6900576972696E67206572726F72F9
:10120000004175746F746573742073616C696461F7
:10121000004176766961206175746F74657374003E
:1012200053656C66207465737420737461727420E6
:101230002000536B6F6E74726F6C756A203A0043B6
:101240006F6E74726F6C61203A00566572696669E0
:10125000636172653A005A6B6F6E74726F6C756A77
:101260007465203A00506C6561736520636865633E
:101270006B203A004175746F74657374204F4B0096
:1012800053656C662074657374204F4B004E69651E
:1012900020706F646C61637A6F6E6F202020004E47
:1012A0006F2068617920636F6E6578696F6E2020AA
:1012B000004E6F6E20636F6E6E6573736F004E65C8
:1012C0007A61706F6A656E6F20202020004E6F7407
:1012D00020636F6E6E65637465640053696C6E693C
:1012E0006B004D6F746F7265004D6F746F720043C9
:1012F000616C656E742E2F5465726D6973746F72B4
:101300000052697363616C642E2F5465726D69734A
:10131000742E004865617465722F546865726D693A
:1013200073746F72004B7265636920736965005650
:10133000656E74696C61646F7220676972610047E1
:1013400069726100546F6369207365005370696E40
:101350006E696E67004E656B7265636920736965BF
:101360000056656E74696C61646F72206E6F2067E1
:10137000697261004E6F6E20736920676972610047
:101380004E65746F6369207365004E6F74207370CF
:10139000696E6E696E6700546573742077656E744C
:1013A000796C61746F726100546573742064656C4C
:1013B0002076656E74696C61646F720050726F762E
:1013C000612064656C2076656E74696C61746F72FF
:1013D00000546573742076656E74696C61746F7205
:1013E000750046616E20746573740053656C667495
:1013F000657374206E69657564616E7900417574FA
:101400006F746573742066616C6C61646F00417504
:10141000746F746573742066616C6C69746F0053CB
:10142000656C66746573742073656C68616C2020EC
:101430000053656C6674657374206661696C6564DD
:101440002020004C6577792077656E74206E6120CE
:101450006479737A653F0056656E742E20656E2040
:101460006C6120697A673F0056656E74205358207E
:1014700073756C6C277567656C6C6F3F004C657697
:10148000792076656E74206E61207472797363655D
:101490003F004C65667420686F74656E64206661F9
:1014A0006E3F004175746F74657374206572726F5E
:1014B0007221004175746F74657374206E65676185
:1014C0007469766F0053656C667465737420657219
:1014D000726F72202100546F70652066696E2E2035
:1014E0006E6F20746F632E0046696E65632E2066F2
:1014F000756F726920706F722E00456E6473746F21
:1015000070206E6F742068697400546F706573206A
:1015100066696E616C0046696E65636F7273612007
:1015200028322900456E6473746F707300546F70B5
:10153000652066696E616C0046696E65636F7273E3
:101540006100456E6473746F700050727A6F646EE0
:10155000692077656E742E206472756B753F005636
:10156000656E742E20616C206672656E74653F0036
:1015700056656E74206469207374616D70612061BA
:101580006E742E3F00507265646E69207469736BCF
:101590006F76792076656E743F0046726F6E7420A8
:1015A0007072696E742066616E3F004B6F6E74726C
:1015B0006F6C61205A2061786973202000436F6E40
:1015C00074726F6C2064656C20656A65205A0056E1
:1015D000657269666963612061737365205A004BA7
:1015E0006F6E74726F6C61205A206178697320206D
:1015F00000436865636B696E67205A206178697380
:101600002020004B6F6E74726F6C612059206178DE
:101610006973202000436F6E74726F6C2064656C78
:1016200020656A65205900566572696669636120A4
:10163000617373652059004B6F6E74726F6C61201B
:10164000592061786973202000436865636B696E77
:1016500067205920617869732020004B6F6E747287
:101660006F6C6120582061786973202000436F6E91
:1016700074726F6C2064656C20656A652058005632
:101680006572696669636120617373652058004BF8
:101690006F6E74726F6C61205820617869732020BE
:1016A00000436865636B696E6720582061786973D1
:1016B0002020004B6F6E74726F6C6120686F7465D0
:1016C0006E64202000436F6E74726F6C20686F74BC
:1016D000656E64200056657269666963612075678E
:1016E000656C6C6F004B6F6E74726F6C6120686F0D
:1016F00074656E64202000436865636B696E6720C3
:10170000686F74656E642020004B6F6E74726F6C2E
:101710006120656E6473746F707300436F6E742E16
:1017200020746F7065732066696E616C0056657217
:1017300069666963612066696E65636F72736100D3
:101740004B6F6E74726F6C6120656E6473746F7032
:101750007300436865636B696E6720656E647374BC
:101760006F7073004B6F6E74726F6C612062656492
:10177000202020202000436F6E74726F6C206465FF
:101780002063616D61005665726966696361206CF2
:101790006574746F004B6F6E74726F6C612062655C
:1017A00064202020202000436865636B696E6720F9
:1017B00062656420202020200057737A7973746B4F
:1017C0006F204F4B20202020202000546F646F207A
:1017D00062696520004E657373756E206572726F65
:1017E000726500567365204F4B202020202020205A
:1017F0002020202000416C6C20636F72726563743E
:101800002020202020200043616D612F43616C6502
:101810006E7461646F72004C6574746F2F526973DB
:1018200063616C642E00426564202F2048656174FA
:101830006572004175746F74657374004175746FDF
:10184000746573740053656C66746573742020202E
:101850002020202020200057726974696E67207450
:101860006F2066696C653A2000766F6C756D652E29
:10187000696E6974206661696C6564002053697AD9
:10188000653A20004B617274612077796A657461F2
:10189000005461726A657461207265746972616472
:1018A000610053442072696D6F737361004B617204
:1018B00074612076796A6D75746100436172642089
:1018C00072656D6F766564005344207072696E7442
:1018D000696E67206279746520006F70656E20669E
:1018E00061696C65642C2046696C653A20006F70F4
:1018F000656E526F6F74206661696C6564004B6140
:1019000072746120776C6F7A6F6E61005461726AD5
:1019100065746120636F6C6F636164610053442080
:10192000696E736572697461004B617274612076CF
:101930006C6F7A656E61004361726420696E7365D5
:101940007274656400534420696E6974206661692D
:101950006C0046696C652073656C65637465640032
:1019600046696C65206F70656E65643A200065722B
:10197000726F722077726974696E6720746F206667
:10198000696C650053442063617264206F6B00438F
:10199000616E6E6F74206F70656E2073756264691E
:1019A000720043616E6E6F7420656E746572207391
:1019B00075626469723A2000577A6E6F7769656E56
:1019C0006965206472756B7500526573756D696524
:1019D0006E646F20696D7072652E00526970726559
:1019E0006E6469207374616D7061004F626E6F7612
:1019F000656E69207469736B7500526573756D69E6
:101A00006E67207072696E74004B6F6E74796E75BC
:101A10006F776163005265616E7564617220696DF4
:101A2000707265732E0052697072656E64692073FE
:101A300074616D706100506F6B7261636F76617479
:101A400000526573756D65207072696E7400526521
:101A500073656E643A2000686F77746F2E707275CC
:101A6000736133642E637A00686F77746F2E7072BF
:101A700075736133642E637A00686F77746F2E70AC
:101A80007275736133642E636F6D00666F72756D6E
:101A90002E707275736133642E637A00666F72758F
:101AA0006D2E707275736133642E637A00666F7287
:101AB000756D2E707275736133642E636F6D007077
:101AC0007275736133642E637A007072757361335B
:101AD000642E637A00707275736133642E636F6D68
:101AE000004472756B2070727A657277616E79004E
:101AF0005374616D70612061626F7274697461000A
:101B00005469736B20707265727573656E005072E4
:101B1000696E742061626F72746564004E616369FE
:101B2000736E696A2070727A796369736B005920E9
:101B300070756C736520656C206D616E646F005903
:101B40002070756C736520656C206D616E646F002C
:101B50004120737469736B6E65746520746C616386
:101B600069746B6F00416E642070726573732074CA
:101B70006865206B6E6F62004E6167727A656A20DD
:101B80006479737A65210050726563616C2E2065FB
:101B900078747275736F7221005072657269732E5A
:101BA000207567656C6C6F210050726564656872A2
:101BB000656A746520747279736B75210050726563
:101BC0006865617420746865206E6F7A7A6C65212F
:101BD0000047727A616E69650050726563616C6579
:101BE0006E7461720050726572697363616C6461D6
:101BF000005072656465687265760050726568654C
:101C0000617400506F77657255700050726F737A0F
:101C10006520637A656B616300457370657261006E
:101C2000417370657474610050726F73696D2063E5
:101C3000656B656A746500506C65617365207761DA
:101C40006974002020506C616E6E65724275666624
:101C5000657242797465733A200050727A657277C2
:101C60006163206472756B005061757361722069E5
:101C70006D70726573696F6E004D6574746920696B
:101C80006E20706175736100506F7A617374617654
:101C90006974207469736B0050617573652070728C
:101CA000696E74006F6B004F66660053696E206D3D
:101CB0006F76696D69656E746F004E657373756ECE
:101CC000206D6F76696D656E746F2E004E6F206D9E
:101CD0006F76652E004272616B206B6172747920A1
:101CE0005344004E6F20686179207461726A657494
:101CF00061205344004E657373756E612053440038
:101D00005A61646E61205344206B61727461004EAD
:101D10006F2053442063617264004479737A6100D8
:101D20004675736F72005567656C6C6F00547279FD
:101D3000736B61004E6F7A7A6C65004272616B2042
:101D400066696C616D656E74750046696C2E206EF7
:101D50006F206361726761646F0046696C2E206E4C
:101D60006F206361726761646F0046696C616D65C5
:101D70006E74206E657A61766564656E0046696C86
:101D8000616D656E74206E6F74206C6F6164656444
:101D9000004B6F6C6F72207A616E6965637A79733C
:101DA0007A2E00436F6C6F72206E6F20636C6172CD
:101DB0006F00436F6C6F72206E6F20636C61726F87
:101DC000004261727661206E656E6920636973748A
:101DD0006100436F6C6F72206E6F7420636C65617D
:101DE00072004E6965004E65004E6F0050726F7351
:101DF0007A65207A616B7475616C697A6F7761635B
:101E00000041637475616C697A617220706F722031
:101E10006661766F720050726567612061676769FD
:101E20006F726E612E0050726F73696D20616B74FA
:101E300075616C697A756A74652E00506C656173A2
:101E40006520757067726164652E005779737A6CCE
:101E500061206E6F776120776572736A61206669B1
:101E6000726D776172653A004E7565766F206669AE
:101E7000726D7761726520646973706F6E69626CF0
:101E8000653A004E756F76612076657273696F6E84
:101E9000652064656C206669726D77617265206487
:101EA0006973706F6E6962696C65005679736C61F5
:101EB000206E6F7661207665727A65206669726D34
:101EC000776172653A004E6577206669726D776159
:101ED00072652076657273696F6E20617661696CD8
:101EE00061626C653A0050727A6573756E61632049
:101EF0005A004D6F766572205A004D756F766920D5
:101F00005A00506F73756E6F7574205A004D6F765E
:101F100065205A0050727A6573756E6163205900AE
:101F20004D6F7665722059004D756F7669205900A6
:101F3000506F73756E6F75742059004D6F76652004
:101F4000590050727A6573756E61632058004D6F49
:101F50007665722058004D756F7669205800506F75
:101F600073756E6F75742058004D6F76652058003C
:101F70004578747275736F72004D756F7669204580
:101F800073747275736F72650045787472756465E9
:101F900072004B616C69627261636A61205A2E2023
:101FA00050727A656B7265632067616C6B652C207B
:101FB0006162792070727A6573756E6163206F73E8
:101FC000205A20646F20676F726E796368206B728D
:101FD000616E636F77656B2E204E616369736E6906
:101FE0006A2C20627920706F7477696572647A69EF
:101FF000632E0043616C696272616E646F205A2EB9
:10200000204769726120656C20626F746F6E20706A
:1020100061726120737562697220656C2063617200
:10202000726F205A20686173746120676F6C7065ED
:10203000207069657A6173207375706572696F725B
:1020400061732E20446573707565732068617A2012
:10205000636C69632E0043616C696272617A696FB7
:102060006E65205A2E2052756F74617265206C6106
:10207000206D616E6F706F6C612070657220616C95
:102080007A61726520696C2063617272656C6C6F35
:10209000205A2066696E6F20616C6C27616C7465D4
:1020A0007A7A61206D617373696D612E20436C696A
:1020B000636B20706572207465726D696E61726504
:1020C0002E004B616C696272616365205A2E204F4D
:1020D000746163656E696D20746C616369746B61B2
:1020E00020706F73756E7465205A206F7375206150
:1020F0007A206B7E686F726E696D7520646F726195
:102100007A752E20506F74767264746520746C61D9
:102110006369746B656D2E0043616C6962726174F2
:10212000696E67205A2E20526F746174652074683E
:1021300065206B6E6F6220746F206D6F7665207402
:102140006865205A206361727269616765207570E5
:1021500020746F2074686520656E642073746F70DE
:10216000706572732E20436C69636B207768656EAF
:1021700020646F6E652E004B616C69627261636AE8
:10218000612058595A2E2050727A656B726563200F
:1021900067616C6B652C206162792070727A65735F
:1021A000756E6163206F73205A20646F20676F72B1
:1021B0006E796368206B72616E636F77656B2E203A
:1021C0004E616369736E696A2C20627920706F7446
:1021D00077696572647A69632E0043616C69627223
:1021E000616E646F2058595A2E20476972612065CC
:1021F0006C20626F746F6E20706172612073756203
:10220000697220656C20636172726F205A20686168
:1022100073746120676F6C7065207069657A617393
:10222000207375706572696F7261732E20446573D7
:10223000707565732068617A20636C69632E004352
:10224000616C696272617A696F6E652058595A2EA5
:102250002052756F74617265206C61206D616E6FC4
:10226000706F6C612070657220616C7A617265209C
:10227000696C2063617272656C6C6F205A206669AC
:102280006E6F20616C6C27616C74657A7A61206D69
:10229000617373696D612E20436C69636B20706597
:1022A00072207465726D696E6172652E004B616C8F
:1022B0006962726163652058595A2E204F746163B8
:1022C000656E696D20746C616369746B6120706FF9
:1022D00073756E7465205A206F737520617A206B58
:1022E0007E686F726E696D7520646F72617A752E8B
:1022F00020506F74767264746520746C61636974C5
:102300006B656D2E0043616C6962726174696E6702
:102310002058595A2E20526F746174652074686574
:10232000206B6E6F6220746F206D6F76652074680D
:1023300065205A206361727269616765207570203B
:10234000746F2074686520656E642073746F70709C
:102350006572732E20436C69636B207768656E200D
:10236000646F6E652E0052756368206F7369004D4F
:102370006F76657220656A6573004D756F766920AA
:102380006173736500506F73756E6F7574206F7332
:1023900075004D6F76652061786973004D657368CF
:1023A000206C6976656C2E206C6574746F004D65C9
:1023B000736820426564204C6576656C696E6700C1
:1023C0004B616C69627261636A610043616C69624E
:1023D000726163696F6E0043616C696272617A69F0
:1023E0006F6E65004B616C69627261636500436189
:1023F0006C6962726174696F6E00207A2039002006
:102400006465203900207375203900207A20390056
:10241000206F662039004F6B7265736C616D207799
:1024200079736F6B6F7363206F646E696573696531
:102430006E69612070756E6B7475206B616C69627A
:10244000726163796A6E65676F004D6564697220B9
:102450006C6120616C747572612064656C207075AC
:102460006E746F206465206C612063616C696272B8
:102470006163696F6E004D69737572617265206C7E
:1024800027616C74657A7A61206469207269666577
:1024900072696D656E746F2064656C2070756E7402
:1024A0006F2064692063616C696272617A696F6E22
:1024B00065004D6572696D207265666572656E6353
:1024C0006E69207679736B75206B616C69627261DD
:1024D000636E69686F20626F6475004D6561737526
:1024E00072696E67207265666572656E63652068E5
:1024F0006569676874206F662063616C69627261E8
:1025000074696F6E20706F696E74004D61726B201C
:1025100066696C616D656E74203130306D6D20665A
:10252000726F6D20657874727564657220626F6475
:10253000792E20436C69636B207768656E20646F29
:102540006E652E004D656E7520676C6F776E650049
:102550004D656E75207072696E636970616C004DB7
:10256000656E75207072696E636970616C65004894
:102570006C61766E69206E616269646B61004D61A9
:10258000696E004D32323120496E76616C6964208B
:10259000657874727564657220004D323138204957
:1025A0006E76616C696420657874727564657220FA
:1025B000004D32303020496E76616C696420657858
:1025C00074727564657220005265706F7274696E02
:1025D0006720656E6473746F7020737461747573B3
:1025E000004649524D574152455F4E414D453A4D87
:1025F00061726C696E2056312E302E323B20537042
:1026000072696E7465722F6772626C206D61736897
:10261000757020666F722067656E36204649524D90
:10262000574152455F55524C3A68747470733A2F53
:102630002F6769746875622E636F6D2F7072757382
:102640006133642F50727573612D69332D506C7531
:10265000732F2050524F544F434F4C5F56455253A7
:10266000494F4E3A312E30204D414348494E455F47
:10267000545950453A5072757361206933204D4B5F
:102680003220636C306E6564204558545255444581
:10269000525F434F554E543A3120555549443A30D4
:1026A000303030303030302D303030302D30303030
:1026B000302D303030302D30303030303030303020
:1026C0003030300A004D31303920496E76616C6906
:1026D0006420657874727564657220004D31303500
:1026E00020496E76616C69642065787472756465E2
:1026F0007220004D31303420496E76616C6964205F
:10270000657874727564657220004C6F6F73652014
:1027100070756C6C6579005770726F7761647A20A0
:1027200066696C616D656E7400506F6E65722066CF
:10273000696C616D656E746F0043617269636120DD
:1027400066696C616D656E746F005A61766573744D
:102750002066696C616D656E74004C6F6164206603
:10276000696C616D656E74005770726F772E2066AC
:10277000696C616D656E74750043617267616E644A
:102780006F2066696C2E0043617267616E646F2012
:1027900066696C2E005A61766164656E69206669AF
:1027A0006C616D656E7475004C6F6164696E672055
:1027B00066696C616D656E7400437A79737A637AC9
:1027C0002E206B6F6C6F72750043617267616E646F
:1027D0006F20636F6C6F720043617267616E646F2C
:1027E00020636F6C6F720043697374656E69206259
:1027F00061727679004C6F6164696E6720636F6CFB
:102800006F72005779626F72206A657A796B610026
:1028100043616D626961206C61206C656E677561F2
:10282000200053656C657A696F6E61206C696E6714
:102830007561005679626572206A617A796B610010
:1028400053656C656374206C616E677561676500C4
:10285000506F6C736B6900457370616E6F6C0049EB
:1028600074616C69616E6F0043657374696E6100B9
:10287000456E676C69736800504152414441204481
:102880004520454D4552472E00494E2054494C5451
:102890002E004B494C4C45442E2000496E76616C0D
:1028A0006964206578747275646572005770726F20
:1028B0007761647A2066696C616D656E7400496E3B
:1028C00073657274612066696C616D656E746F000A
:1028D000496E7365726972652066696C616D656EBB
:1028E000746F00566C6F7A74652066696C616D65F3
:1028F0006E7400496E736572742066696C616D65F3
:102900006E7400207A20390020646520390020731D
:1029100075203900207A203900206F662039005058
:102920006F7072617769616D2070726563797A7911
:102930006A6E6F73632070756E6B7475206B616C5B
:102940006962726163796A6E65676F004D656A6F6F
:1029500072616E646F2063616D612070756E746F5B
:102960002064652063616C6962726163696F6E00E7
:1029700050657266657A696F6E2E20696C206C6591
:1029800074746F2070756E746F2064692063616C5D
:10299000696272617A2E005A6C657073756A69207B
:1029A000707265736E6F7374206B616C69627261B3
:1029B000636E69686F20626F647500496D70726F35
:1029C00076696E67206265642063616C696272611A
:1029D00074696F6E20706F696E74004B616C696210
:1029E00072756A65205A0043616C696272616E6437
:1029F0006F205A0043616C696272616E646F205A85
:102A0000004B616C696272756A69205A0043616C9F
:102A10006962726174696E67205A004B616C696209
:102A20007261636A61204F4B0043616C696272613D
:102A300063696F6E204F4B0043616C696272617A0B
:102A4000696F6E65204F4B004B616C696272616308
:102A500065204F4B0043616C6962726174696F6EEF
:102A600020646F6E65004B616C696272756A205AF2
:102A70000043616C6962726172205A0043616C6943
:102A8000627261205A004B616C6962726F76617488
:102A9000205A0043616C696272617465205A004774
:102AA000727A616E6965204F4B2E0043616C656ED2
:102AB00074616E646F206C6973746F2E0052697359
:102AC00063616C64616D656E746F20666174746FB0
:102AD0002E005A6168726976616E69204F4B2E0034
:102AE00048656174696E6720646F6E652E00477279
:102AF0007A616E69652E2E2E0043616C656E74617D
:102B00006E646F2E2E2E0052697363616C64616D6A
:102B1000656E746F2E2E2E005A6168726976616E32
:102B2000690048656174696E6700204672656520BA
:102B30004D656D6F72793A20004472756B61726BEE
:102B400061206E6965207A6F7374616C61206A65BB
:102B5000737A637A6520736B616C6962726F7761F7
:102B60006E612E2050726F737A65206B6965726F8B
:102B70007761632073696520696E737472756B6326
:102B80006A612C20726F7A647A69616C205A616381
:102B90007A796E616D792C20706F64726F7A647AC5
:102BA00069616C2053656C66746573742E00496DA1
:102BB000707265736F7261206E6F2065737461202F
:102BC00063616C69627261646120746F64617669CB
:102BD000612E20506F72206661766F72207573616E
:102BE0007220656C206D616E75616C2C20656C20A7
:102BF0006361706974756C6F2046697273742073B9
:102C0000746570732C2073656C656363696F6E20E7
:102C100043616C6962726174696F6E20666C6F7774
:102C20002E005374616D70616E746520616E636F08
:102C30007261206E6F6E2063616C69627261746193
:102C40002E20536920707265676120646920736566
:102C5000677569726520696C206D616E75616C6560
:102C60002C2063617069746F6C6F205052494D491C
:102C70002050415353492C2073657A696F6E65204B
:102C800064656C6C612063616C696272617A696F02
:102C90006E652E005469736B61726E61206E6562A1
:102CA000796C61206A65737465207A6B616C696206
:102CB000726F76616E612E20506F73747570756AD5
:102CC00074652070726F73696D20706F646C65201D
:102CD0006D616E75616C752C206B617069746F6CC1
:102CE00061205A6163696E616D652C206F64737435
:102CF0006176656320506F73747570206B616C69C9
:102D000062726163652E005072696E74657220682C
:102D10006173206E6F74206265656E2063616C69FB
:102D2000627261746564207965742E20506C6561EF
:102D3000736520666F6C6C6F7720746865206D61B9
:102D40006E75616C2C2063686170746572204669D1
:102D50007273742073746570732C20736563746967
:102D60006F6E2043616C6962726174696F6E206678
:102D70006C6F772E0050727A65706C797700466CB4
:102D8000756A6F00466C7573736F00507275746F5F
:102D90006B00466C6F7700207A2034002064652039
:102DA0003400207375203400207A203400206F66B0
:102DB000203400537A756B616D2070756E6B74757D
:102DC000206B616C6962726163796A6E65676F20FE
:102DD000706F646B6C61646B690042757363616EE4
:102DE000646F2063616D612070756E746F2064651F
:102DF0002063616C6962726163696F6E005269631E
:102E0000657263612064656C206C6574746F2070FA
:102E1000756E746F2064692063616C696272617A97
:102E20002E00486C6564616D206B616C6962726133
:102E3000636E6920626F6420706F646C6F7A6B7967
:102E400000536561726368696E6720626564206320
:102E5000616C6962726174696F6E20706F696E7403
:102E600000446F6E6520736176696E672066696CD9
:102E7000652E00446F6E65207072696E74696E67AE
:102E80002066696C6500497320636F6C6F72206304
:102E90006C6561723F0057796D69656E6963206684
:102EA000696C616D656E740043616D626961722069
:102EB00066696C616D656E746F0043616D622E2092
:102EC00066696C616D656E746F0056796D656E69CB
:102ED000742066696C616D656E74004368616E672D
:102EE000652066696C616D656E7400507265646B17
:102EF0006F73632077656E742E0056656E74696C0F
:102F000061646F720056656C6F63697461207665E9
:102F10006E746F6C6100527963686C6F73742076A5
:102F2000656E742E0046616E207370656564006581
:102F30006E717565696E67202200526F74617465E9
:102F4000206B6E6F6220756E74696C206D61726BA0
:102F50002072656163686573206578747275646555
:102F60007220626F64792E20436C69636B207768EE
:102F7000656E20646F6E652E002045787465726EF4
:102F8000616C205265736574005072696E7465726D
:102F90002073746F707065642064756520746F2091
:102FA0006572726F72732E2046697820746865208E
:102FB0006572726F7220616E6420757365204D3981
:102FC000393920746F20726573746172742E2028F1
:102FD00054656D70657261747572652069732072D5
:102FE000657365742E20536574206974206166745E
:102FF00065722072657374617274696E6729004E20
:103000006F204C696E65204E756D62657220776920
:10301000746820636865636B73756D2C204C6173F5
:1030200074204C696E653A20004E6F2043686563DA
:103030006B73756D2077697468206C696E65206E9E
:10304000756D6265722C204C617374204C696E65DD
:103050003A20004C696E65204E756D62657220697C
:1030600073206E6F74204C617374204C696E652000
:103070004E756D6265722B312C204C617374204C3F
:10308000696E653A20005072696E746572206861DD
:103090006C7465642E206B696C6C28292063616CEC
:1030A0006C65642100636865636B73756D206D6981
:1030B000736D617463682C204C617374204C696E6D
:1030C000653A2000424C41443A0043485942413A53
:1030D000004552524F523A00456E642066696C6555
:1030E000206C697374006F70656E005452494747D5
:1030F0004552454400656E6473746F70732068694F
:10310000743A20005265706F736F2E2E2E00536F2D
:103110007370656E73696F6E652E2E2E00536C652D
:1031200065702E2E2E0057796C61637A7963207357
:10313000696C6E696B6900417061676172206D6FC7
:10314000746F726573004469736162696C6974209D
:103150006D6F746F7269005679706E6F7574206D43
:103160006F746F72790044697361626C6520737467
:103170006570706572730020436F756E7420583AE5
:10318000200057796D69616E61206F6B3F0043616C
:103190006D626961646F20636F727265632E3F00B8
:1031A00043616D626961746F20636F72722E3F00BC
:1031B00056796D656E61206F6B3F004368616E6785
:1031C000656420636F72726563746C793F00577930
:1031D00063686C6F647A696300456E6672696172D8
:1031E00000526166667265646461005A63686C616E
:1031F00064697400436F6F6C646F776E00446C6138
:10320000207072617769646C2E206B616C696272E8
:1032100061636A692070726F737A65206F637A796F
:1032200073636963206479737A652E20506F7477B5
:103230002E2067757A696B69656D2E004C696D701B
:1032400069617220626F7175696C6C612070617266
:10325000612063616C6962726163696F6E2E2043E5
:103260006C69636B206375616E646F20616361627A
:1032700065732E0050756C697265206C27756765E3
:103280006C6C6F20706572206C612063616C696288
:1032900072617A696F6E652C20706F692066617249
:1032A0006520636C69636B2E0050726F20757370BC
:1032B00065736E6F75206B616C6962726163692002
:1032C0006F636973746574652070726F73696D20C4
:1032D0007469736B6F766F7520747279736B752E6A
:1032E00020506F74767264746520746C61636974C5
:1032F0006B656D2E00506C6561736520636C656154
:103300006E20746865206E6F7A7A6C6520666F72C5
:103310002063616C6962726174696F6E2E20436C08
:1033200069636B207768656E20646F6E652E004F51
:10333000626120776F7A6B6920646F6A6563686188
:103340006C7920646F20676F726E656A2072616DA0
:10335000793F00436172726F73205A20697A712E2F
:103360002F6465722E20657374616E2061727269BC
:103370006261206D6178696D6F3F00492063617201
:1033800072656C6C69205A2073696E2F64657320B6
:10339000736F6E6F20616C74657A7A61206D6178ED
:1033A0003F00446F6A656C79206F6261205A207615
:1033B0006F7A696B79206B7E686F726E696D7520AC
:1033C000646F72617A753F00417265206C65667446
:1033D00020616E64207269676874205A7E6361722E
:1033E00072696167657320616C6C2075703F0020A5
:1033F0004C61737420557064617465643A200045B3
:103400002063616C6962726174696F6E2066696EB7
:1034100069736865642E20506C6561736520636C08
:1034200065616E20746865206E6F7A7A6C652E20F7
:10343000436C69636B207768656E20646F6E652EE0
:103440000057796D69616E61206F6B210043616D7A
:1034500062696172206269656E210043616D626913
:10346000612E20726975736369746F21005A6D65EE
:103470006E612075737065736E6121004368616EC3
:103480006765207375636365737321004472756BA0
:10349000207A205344004D656E75206465205344A6
:1034A000005374616D70612064612053440054695D
:1034B000736B207A205344005072696E74206672D8
:1034C0006F6D2053440043616C69627261746520C2
:1034D00045005265736574206B616C6962722E20C1
:1034E00058595A0052657365742058595A206B61B7
:1034F0006C6962722E0052657365742058595A20A7
:1035000063616C6962722E004B616C696272616307
:103510006A612058595A0043616C6962726120588F
:10352000595A0043616C696272612058595A004BC4
:10353000616C6962726163652058595A0043616C1D
:103540006962726174652058595A002042726F771F
:103550006E206F75742052657365740042656769EB
:103560006E2066696C65206C697374004B616C69D0
:10357000627261636A612058595A206E6965646F8E
:103580006B6C61646E612E204C6577792070727A65
:1035900065646E692070756E6B74207A6279742030
:1035A000777973756E6965747920646F2070727AAB
:1035B0006F64752E0043616C696272617A696F6E27
:1035C0002058595A20636F6D70726F6D657469640D
:1035D000612E2050756E746F2064656C616E746529
:1035E000726F20697A7175696572646F206E6F20E1
:1035F000616C63616E7A61626C652E0043616C6917
:103600006272617A696F6E652058595A20636F6DD6
:1036100070726F6D657373612E2050756E746F20BC
:10362000616E746572696F72652073696E69737417
:10363000726F206E6F6E207261676769756E676961
:1036400062696C652E004B616C6962726163652012
:1036500058595A206E65707265736E612E204C65E4
:10366000767920707265646E6920626F64206D6F78
:1036700063207670726564752E0058595A20636114
:103680006C6962726174696F6E20636F6D70726FC6
:103690006D697365642E204C6566742066726F6E6A
:1036A000742063616C6962726174696F6E20706FFF
:1036B000696E74206E6F7420726561636861626CFC
:1036C000652E004B616C6962722E2058595A206E2B
:1036D0006965646F6B6C61646E612E2050727A65EF
:1036E000646E69652070756E6B7479206B616C69AE
:1036F00062722E205A627974207779732E20646F5B
:103700002070727A6F64752E0043616C6962726119
:103710007A696F6E2058595A20636F6D70726F6DA1
:1037200065746964612E2050756E746F2064656CD9
:10373000616E7465726F73206E6F20616C63616E71
:103740007A61626C65732E0043616C696272617AA2
:10375000696F6E652058595A20636F6D70726F6D76
:10376000657373612E2050756E746920616E746587
:1037700072696F7269206E6F6E207261676769751A
:103780006E676962696C692E004B616C6962726177
:1037900063652058595A206E65707265736E612E8C
:1037A00020507265646E69206B616C69627261633E
:1037B0006E6920626F6479206D6F63207670726528
:1037C00064752E0058595A2063616C696272617485
:1037D000696F6E20636F6D70726F6D697365642EB3
:1037E0002046726F6E742063616C696272617469E5
:1037F0006F6E20706F696E7473206E6F74207265C7
:1038000061636861626C652E004B616C6962726114
:10381000636A612058595A207720706F727A616408
:103820006B752E204F73696520582F59206C656B7E
:103830006B6F20736B6F736E652E0043616C6962F2
:10384000726163696F6E2058595A20636F6E736599
:1038500067756964612E20456A657320582F592069
:10386000756E20706F636F20746F726369646F731D
:103870002E0043616C696272617A696F6E652058CF
:10388000595A20636F6D70697574612E20476C6999
:10389000206173736920582F5920736F6E6F206CED
:1038A00065676765726D656E746520646973746FB2
:1038B0007274692E004B616C696272616365205895
:1038C000595A207620706F7261646B752E20582FC4
:1038D00059206F7379206D69726E65207A6B6F73F2
:1038E000656E652E0058595A2063616C6962726179
:1038F00074696F6E20616C6C2072696768742E2029
:10390000582F5920617865732061726520736C6946
:103910006768746C7920736B657765642E004F73EC
:10392000696520582F59207361206D6F636E6F2079
:10393000736B6F736E652E20536B6F7320626564BB
:103940007A6965206175742E207779726F776E6160
:103950006E792070727A79206472756B752E0058BA
:103960002F59206D757920646973746F7273696F54
:103970006E61646F2E204C6120646973746F727382
:10398000696F6E207365726120636F72726567691B
:103990006461206175746F6D61746963616D656EDA
:1039A00074652E00582F5920666F7274656D656EB0
:1039B000746520646973746F72746F2E204C61207B
:1039C000646973746F7273696F6E65207665727265
:1039D000612720636F727265747461206175746F02
:1039E0006D61746963616D656E74652E00582F5941
:1039F000206F7379206A736F752073696C6E652010
:103A00007A6B6F73656E652E205A6B6F73656E6986
:103A10002062756465206175746F6D617469636B94
:103A200079207679726F766E616E6F207072692080
:103A30007469736B752E00582F5920736B65776509
:103A4000642073657665726C792E20536B657720E0
:103A500077696C6C20626520636F72726563746550
:103A600064206175746F6D61746963616C6C792E2B
:103A7000004B616C6962722E2058595A206E69653C
:103A80007564616E612E204B616C6962726163794D
:103A90006A6E792070756E6B7420706F646B6C61E8
:103AA000646B69206E69657A6E616C657A696F6EA8
:103AB000792E0043616C6962726163696F6E205890
:103AC000595A2066616C6C6164612E2050756E7469
:103AD0006F732064652063616C6962726163696FF2
:103AE0006E20656E206C612063616D61206E6F20B9
:103AF000656E636F6E747261646F732E0043616CE8
:103B0000696272617A696F6E652058595A206661E0
:103B10006C6C6974612E20496C2070756E746F2016
:103B200064692063616C696272617A696F6E652095
:103B300073756C206C6574746F206E6F6E206527D2
:103B400020737461746F2074726F7661746F2E00CD
:103B50004B616C6962726163652058595A207365C4
:103B60006C68616C612E204B616C69627261636E7E
:103B70006920626F6420706F646C6F7A6B79206E5D
:103B8000656E616C657A656E2E0058595A206361C6
:103B90006C6962726174696F6E206661696C6564DC
:103BA0002E204265642063616C6962726174696F82
:103BB0006E20706F696E7420776173206E6F742051
:103BC000666F756E642E004B616C69627261636A28
:103BD000612058595A206F6B2E204F736965205809
:103BE0002F592073612070726F73746F7061646CF1
:103BF000652E2047726174756C61636A65210043AC
:103C0000616C6962726163696F6E2058595A206FE6
:103C10006B2E20456A657320582F5920706572708D
:103C2000656E646963756C617265732E2046656CA0
:103C3000696369746163696F6E6573210043616CC8
:103C4000696272617A696F6E652058595A204F4BCC
:103C50002E20476C69206173736920582F59207397
:103C60006F6E6F2070657270656E6469636F6C61F2
:103C700072692E20436F6D706C696D656E74692179
:103C8000004B616C6962726163652058595A2076F5
:103C900020706F7261646B752E20582F59206F73DE
:103CA00079206A736F75206B6F6C6D652E2047727B
:103CB0006174756C756A69210058595A2063616C8A
:103CC0006962726174696F6E206F6B2E20582F5974
:103CD0002061786573206172652070657270656E11
:103CE000646963756C61722E20436F6E67726174D4
:103CF000756C6174696F6E7321004B616C696272DF
:103D000061636A612058595A206E6965706F7769DE
:103D100065647A696F6E612E205370726177647A80
:103D20006963207720696E737472756B636A692E9C
:103D30000043616C6962726163696F6E2058595A01
:103D40002066616C6C6164612E20436F6E73756CCC
:103D500074617220656C206D616E75616C20706F8E
:103D600072206661766F722E0043616C69627261C7
:103D70007A696F6E652058595A2066616C6C697457
:103D8000612E205369207072656761206469206329
:103D90006F6E73756C7461726520696C206D616EF5
:103DA00075616C652E004B616C69627261636520A0
:103DB00058595A2073656C68616C612E204E616899
:103DC0006C65646E65746520646F206D616E7561ED
:103DD0006C752E0058595A2063616C696272617467
:103DE000696F6E206661696C65642E20506C656138
:103DF000736520636F6E73756C7420746865206DD5
:103E0000616E75616C2E004B616C6962722E205878
:103E1000595A206E69657564616E612E204C657714
:103E2000792070727A65646E692070756E6B74208B
:103E30007A62797420646F2070727A6F64752E20B4
:103E40005779726F776E6163206472756B61726B04
:103E5000652E0043616C6962726163696F6E205800
:103E6000595A2066616C6C61642E2050756E746FB7
:103E70002064656C616E7465726F20697A71756912
:103E80006572646F206E6F20616C63616E7A61622F
:103E90006C652E0043616C696272617A696F6E6550
:103EA0002058595A2066616C6C6974612E205075D7
:103EB0006E746F20616E746572696F7265207369CC
:103EC0006E697374726F206E6F6E207261676769BE
:103ED000756E676962696C652E004B616C69627210
:103EE0006163652058595A2073656C68616C612E56
:103EF000204C65767920707265646E6920626F640B
:103F0000206D6F63207670726564752E2053726F1A
:103F1000766E656A7465207469736B61726E752E56
:103F20000058595A2063616C6962726174696F6EDE
:103F3000206661696C65642E204C6566742066722B
:103F40006F6E742063616C6962726174696F6E2058
:103F5000706F696E74206E6F742072656163686142
:103F6000626C652E004B616C6962722E2058595A42
:103F7000206E69657564616E612E2050727A656489
:103F80002E2070756E6B7479206B616C6962722E75
:103F9000207A62797420646F2070727A6F64752E53
:103FA000205779726F776E6163206472756B6172EE
:103FB0006B652E0043616C6962726163696F6E208C
:103FC00058595A2066616C6C61642E2050756E746D
:103FD0006F2064656C616E7465726F73206E6F2004
:103FE000616C63616E7A61626C65732E0043616C13
:103FF000696272617A696F6E652058595A206661EC
:104000006C6C6974612E2050756E746920616E74D9
:104010006572696F7269206E6F6E20726167676981
:10402000756E676962696C692E004B616C696272BA
:104030006163652058595A2073656C68616C612E04
:1040400020507265646E69206B616C696272616395
:104050006E6920626F6479206D6F6320767072657F
:1040600064752E2053726F766E656A74652074696C
:10407000736B61726E752E0058595A2063616C69BA
:1040800062726174696F6E206661696C65642E206E
:1040900046726F6E742063616C6962726174696FDD
:1040A0006E20706F696E7473206E6F74207265611C
:1040B000636861626C652E004B616C69627261635A
:1040C0006A61206E69657564616E612E2053656E4C
:1040D000736F72206F646C61637A6F6E79206C7598
:1040E000622075737A6B6F647A2E206B6162656CE7
:1040F0002E20437A656B616D206E61207265736559
:10410000742E004E6976656C6163696F6E2066611E
:104110006C6C6164612E2053656E736F72206465F0
:1041200073636F6E65637461646F206F2063616297
:104130006C65732064616E61646F732E20457370CB
:104140006572616E646F2072657365742E004C69D0
:1041500076656C6C616D656E746F206C6574746FE0
:104160002066616C6C69746F2E2053656E736F727C
:104170006520646973636F6E2E206F204361766FD4
:104180002044616E6E2E20496E20617474657361E7
:104190002064692072657365742E004B616C6962DE
:1041A00072616365205A2073656C68616C612E20B2
:1041B00053656E736F72206A65206F64706F6A65F5
:1041C0006E79206E65626F20707265727573656EB0
:1041D00079206B6162656C2E2043656B616D206E8A
:1041E000612072657365742E00426564206C65768B
:1041F000656C696E67206661696C65642E20536525
:104200006E736F7220646973636F6E6E656374653D
:1042100064206F72206361626C652062726F6B65EF
:104220006E2E2057616974696E6720666F72207206
:10423000657365742E004B616C69627261636A61BB
:10424000206E69657564616E612E2053656E736FB3
:1042500072206E696520646F746B6E616C2E205ADB
:10426000616E6965637A79737A2E206479737A61F5
:104270003F20437A656B616D206E612072657365C6
:10428000742E004E6976656C6163696F6E2066619D
:104290006C6C6164612E2053656E736F72206E6F5B
:1042A0002066756E63696F6E612E204573636F6D56
:1042B00062726F7320656E20426F7175692E3F20A8
:1042C0004573706572616E646F2072657365742EDC
:1042D000004C6976656C6C616D656E746F206C6501
:1042E00074746F2066616C6C69746F2E4E6F5269C6
:1042F000737053656E736F7220526573696475696C
:10430000207375207567656C6C6F3F20496E206166
:1043100074746573612064692072657365742E001E
:104320004B616C696272616365205A2073656C68C9
:10433000616C612E2053656E736F72206E657365BC
:10434000706E756C2E205A6E6563697374656E614C
:1043500020747279736B613F2043656B616D206ED1
:10436000612072657365742E00426564206C657609
:10437000656C696E67206661696C65642E205365A3
:104380006E736F72206469646E74207472696767FB
:1043900065722E20446562726973206F6E206E6FA5
:1043A0007A7A6C653F2057616974696E6720666F21
:1043B000722072657365742E004B616C6962726164
:1043C000636A61205A206E69657564616E612E2092
:1043D00053656E736F7220646F746B2E207A612048
:1043E0007779736F6B6F2E20437A656B616D206EEA
:1043F000612072657365742E004E6976656C616329
:10440000696F6E2066616C6C6164612E2053656E0D
:10441000736F722066756E63696F6E612064656D7F
:1044200061736961646F2074656D7072616E6F2E67
:10443000204573706572616E646F20726573657478
:104440002E004C6976656C6C616D656E746F206CC6
:104450006574746F2066616C6C69746F2E52697339
:10446000702073656E736F72652074726F70706FF9
:104470002070726573746F496E2061747465736126
:104480002064692072657365742E004B616C6962EB
:1044900072616365205A2073656C68616C612E20BF
:1044A00053656E736F72207365706E756C207072D9
:1044B000696C6973207679736F6B6F2E2043656B1F
:1044C000616D206E612072657365742E00426564B3
:1044D000206C6576656C696E67206661696C6564E1
:1044E0002E2053656E736F722074726967676572F0
:1044F000656420746F6F20686967682E2057616952
:1045000074696E6720666F722072657365742E0021
:1045100047727A616E69652073746F6C696B612E86
:104520002E00426173652043616C656E74616E6438
:104530006F0050696174746F2072697363616C6499
:10454000616D2E005A6168726976616E69206265DC
:1045500064004265642048656174696E6700537445
:104560006F6C696B204F4B2E0042617365206C6944
:1045700073746F2E0050696174746F206661747477
:104580006F2E00426564204F4B2E0042656420640C
:104590006F6E65005720707261776F205B756D5D7F
:1045A00000446572656368612020205B756D5D0065
:1045B0004C61746F2064657374726F20756D005662
:1045C000707261766F205B756D5D0052696768740B
:1045D000207369646520756D0052657365740044CD
:1045E0006F2074796C7520205B756D5D004174726D
:1045F000617320202020205B756D5D004C61746F1D
:1046000020706F73746572696F726500567A6164A9
:104610007520205B756D5D00526561722073696461
:10462000652020756D004B6F72656B746120706F33
:10463000646B6C61646B6900436F72722E206465F9
:10464000206C612063616D6100436F7272657A2E28
:10465000206C69762E6C6574746F004B6F72656B9D
:10466000636520706F646C6F7A6B790042656420BB
:104670006C6576656C20636F727265637400572099
:104680006C65776F20205B756D5D00497A71756987
:1046900065726461205B756D5D004C61746F2073A1
:1046A000696E697374726F20756D00566C65766FF4
:1046B00020205B756D5D004C6566742073696465D0
:1046C0002020756D00446F2070727A6F6475205BD6
:1046D000756D5D004164656C616E746520205B756D
:1046E0006D5D004C61746F2061746572696F7265F5
:1046F00020756D00567072656475205B756D5D0088
:1047000046726F6E74207369646520756D00537412
:104710006F6C696B0042617365004C6574746F0067
:10472000426564004F646C65676C6F7363206479E5
:10473000737A79206F6420706F646B6C61646B694D
:10474000206E6965206A65737420736B616C6962A1
:10475000726F77616E612E20506F73746570756A29
:10476000207A676F646E6965207A20696E7374724F
:10477000756B636A6120726F7A647A69616C205A22
:1047800061637A796E616D792C20706F64726F7AD3
:10479000647A69616C204B616C69627261636A6101
:1047A000207069657277737A656A207761727374B5
:1047B00077792E0044697374616E63696120656E58
:1047C000747265206C612070756E74612064652060
:1047D0006C6120626F7175696C6C612079206C610D
:1047E0002073757065726669636965206465206C05
:1047F000612063616D61206E6F2066696A6164612A
:104800002061756E2E20506F72206661766F722067
:104810007369676120656C206D616E75616C2C2019
:104820006361706974756C6F20466972737420736C
:10483000746570732C2073656363696F6E204669BD
:10484000727374206C617965722063616C69627245
:104850006174696F6E2E0044697374616E7A6120B1
:10486000747261206C612070756E74612064656C77
:104870006C277567656C6C6F2065206C61207375A3
:1048800070657266696369652064656C206C657427
:10489000746F206E6F6E20616E636F726120696D40
:1048A000706F7374612E2053692070726567612088
:1048B0006469207365677569726520696C206D6134
:1048C0006E75616C652C2063617069746F6C6F200C
:1048D00046697273742073746570732C2073657AE3
:1048E000696F6E65204669727374206C61796572B8
:1048F0002063616C6962726174696F6E2E004E652F
:104900006E69207A6B616C6962726F76616E61208C
:10491000767A64616C656E6F737420747279736BF0
:1049200079206F64207469736B6F766520706F6493
:104930006C6F7A6B792E20506F73747570756A7412
:10494000652070726F73696D20706F646C65206D87
:10495000616E75616C752C206B617069746F6C6130
:10496000205A6163696E616D652C206F6473746198
:10497000766563204E6173746176656E692070722E
:10498000766E69207672737476792E00446973743A
:10499000616E6365206265747765656E2074697009
:1049A000206F6620746865206E6F7A7A6C6520616E
:1049B0006E64207468652062656420737572666138
:1049C000636520686173206E6F74206265656E2078
:1049D000736574207965742E20506C656173652051
:1049E000666F6C6C6F7720746865206D616E7561A1
:1049F0006C2C2063686170746572204669727374F0
:104A00002073746570732C2073656374696F6E20F6
:104A10004669727374206C617965722063616C6998
:104A200062726174696F6E2E00446F7374726F6A84
:104A3000656E6965206F7379205A004D6963726FE6
:104A40007061736F205A00436F6D70656E73617A89
:104A5000696F6E65205A00446F6C6164656E6920F1
:104A60006F7379205A004C6976652061646A7573AA
:104A700074205A0041646A757374696E67205A0025
:104A80004C6C6576617220616C206F726967656E2F
:104A90000054726F7661206F726967696E650041BC
:104AA00075746F20686F6D6500207C204175746897
:104AB0006F723A200041637469766520457874729C
:104AC000756465723A2000F50BDE0BC30BA90B8EE3
:104AD0000B100C180C200C290C310C470C430C400B
:104AE0000C3D0C390C4B0C530C5B0C9B0C910C8249
:104AF0000C760C6B0CA70CEE0CEE0CDC0CCA0CEE5E
:104B00000C410D300D1E0D0E0DFF0C510D820D7C54
:104B10000D750D6D0D640D990D990D990D990D87FC
:104B20000DBD0DBD0DBD0DBD0DAB0DFA0DF20DE6AC
:104B30000DDA0DCE0D140E0C0E140E140E060E5AB8
:104B40000E4C0E3D0E2B0E1C0E770E770E6C0E6566
:104B50000E770E810ED50EC70EB50EA60E950E2D34
:104B60000F1B0F0C0FFB0EE80E7C0F6E0F5D0F4D31
:104B70000F3E0FC30FB60FA50F970F8A0F0810FB3C
:104B80000FEF0FE10FD40F151065105C1053104993
:104B90001040106B10C310B1109F108D107B101CB3
:104BA000110A11F910E710D5107111601150113E62
:104BB000112E11A9119F1192118B118011F411E581
:104BC00011D411C211B2112012201211120112209F
:104BD00012651256124A123F12321280128012745B
:104BE0001280128012CD12BE12B1129F128D12E9E4
:104BF00012E912E212E912DB12131313130113EF7D
:104C00001213134C1344133F132F1325138A1380CD
:104C100013741361135513E213D113BC13A8139724
:104C20001331141F140E14FD13EB1392147D14682A
:104C30001457144314C514C514B314A314C514FA9B
:104C400014FA14E814D614FA142415241516150AA7
:104C50001524154215421538152D1542159A15853E
:104C60001570155F154A15F115DF15CF15BD15AB7C
:104C70001549163716271615160316A1168F167F17
:104C8000166D165B16F716E516D516C516B3165231
:104C90001740172D171B170917A717951786177693
:104CA000176417F517E317D517CB17B9172618266A
:104CB00018171807182618451845183C18331845B2
:104CC00018571869187C18BB18AD18A218911884C9
:104CD00018C818DA18EE18371929191D190C19FEF9
:104CE000184519521960196E1984198F19A219FAE9
:104CF00019EB19DB19C919B819411A361A261A15F0
:104D00001A091A4E1A791A681A791A791A571AADA5
:104D10001A9C1AAD1AAD1A8B1AD51ACA1AD51AD5F9
:104D20001ABF1A0E1B001BF01A0E1BE11A651B504E
:104D30001B3F1B2E1B1C1BBD1BA91B991B871B7814
:104D40001BFB1BF11BE51BD91BD11B031C371C28AC
:104D50001C201C191C0B1C431C981C881C791C68EB
:104D60001C5A1CA41CA71CCC1CCC1CBA1CAB1CCCF5
:104D70001C0F1D001DF51CE31CD51C341D2D1D260C
:104D80001D201D1A1D7D1D6A1D5A1D4A1D3B1DD269
:104D90001DC11DB21DA31D911DE91DE61DE91DE9E3
:104DA0001DE21D3B1E261E161E011EEC1DC61EAB5F
:104DB0001E831E681E4B1E0D1F021FFA1EF21EE6EA
:104DC0001E3B1F301F281F201F141F691F5E1F5608
:104DD0001F4E1F421F891F891F791F701F891F18AF
:104DE00021C2205620F31F921F0523AD223F22DA55
:104DF000217721922385237A236F236623AE23AE66
:104E0000239C23AE23AE23EE23E423D723CB23C05E
:104E10002310240B240524FF23FA23DB24B2247659
:104E2000244A2416240B257E256F255F2550254412
:104E30002583259A25B125C825E125C526DC26F33D
:104E4000260A275A274A27392729271727A82795C7
:104E500027872779276827F527E727D827C927B97C
:104E60002740283328222810280328702868285F24
:104E70002857285028922892288928782892289BF9
:104E800028F328E328D028BE28AC28192914290E95
:104E90002908290329BB29972970294C291F290D85
:104EA0002A012AF429E729DB29552A482A382A2900
:104EB0002A1B2A932A862A7C2A712A662AE02AD269
:104EC0002ABD2AAB2A9F2A222B182B072BF92AEE60
:104ED0002A2A2B072D942C222CAE2B392B922D8B8A
:104EE0002D842D7E2D752DAD2DA82DA22D9C2D97B9
:104EF0002D412E222EFD2DDA2DB32D612E732E86FF
:104F00002EDB2ECA2EBA2EA82E962E252F162F0552
:104F10002FFA2EEB2E2F2F3A2F792F892FFF2F29A3
:104F20003053308630A530D130CA30D130D130C482
:104F300030D830E630EB30F5301D311D310E310404
:104F4000311D31663157314631373126317731BB2A
:104F500031B031A0318E318231F431EB31E131D9D0
:104F600031CE31F532A93274323C32FD31C833A230
:104F7000337B3353332F33EF33FF337C346D345B68
:104F8000344D344134B834AE34A13496348C34C604
:104F900034F634E434F634F634D2343D352F352348
:104FA00035173508354B355C357A364636FC35B520
:104FB000356C35C437893748370937C336E538B5D6
:104FC0003872383B380938373AED39A4395F391E21
:104FD000398A3B503BFD3AB33A713AB93C813C3D8A
:104FE0003CFF3BC73BD43DA63D693D313DFA3C21EA
:104FF0003FDA3E943E533E073E78402A40ED3FB4B0
:105000003F653FE9419B414E410341B84069432020
:1050100043D14283423642CD448B444244F943B9A2
:1050200043524544453245224510458B45834575DD
:105030004569455E45CB45BF45B045A1459445D939
:105040004518460C46FC45ED45DF456C465B464938
:105050004638462646B746AB469A468B467E4600BD
:1050600047F446E346D446C546204720471A47152D
:10507000470E478C49FE485748B4472447664A576D
:105080004A474A3B4A294A744A9F4A9F4A914A8062
:105090004A9F4AA94AB54A457872656D6520737082
:1050A000616E206F6620746865205A2076616C7589
:1050B00065732100626F74746F6D00746F7000000F
:1050C000506F696E742068656967687420746F6FCB
:1050D00020736D616C6C3A20007269676874006CB3
:1050E0006566740000506F696E7420776964746837
:1050F00020746F6F20736D616C6C3A2000002C205F
:10510000003A200046696E616C2063616C63756CC7
:10511000617465642062656420706F696E7420003C
:1051200043616C63756C6174696F6E206F66207487
:105130006865206D616368696E6520736B657720B3
:10514000616E64206F6666736574206661696C6564
:10515000642E00002C20003A200046696E616C200D
:105160006D656173757265642062656420706F6936
:105170006E74200000206661696C65642E204C6F9F
:10518000776572696E67207A20746F20002C206921
:105190007465726174696F6E2000496D70726F760C
:1051A000696E672062656420706F696E742000000C
:1051B0002C207A002C20697465726174696F6E20EE
:1051C00000496D70726F76696E6720626564207049
:1051D0006F696E742000417420592D340041742091
:1051E000593000002C20002C200020004D656173F8
:1051F000757265642000002C200041646A75737428
:10520000656420706F736974696F6E3A2000002CBA
:1052100020683A002C20646D61783A005061727405
:1052200069616C20706F696E7420657374696D615B
:105230007465642072616469757320746F6F207384
:105240006D616C6C3A2000005061727469616C2071
:10525000706F696E74206469616D65746572207425
:105260006F6F20736D616C6C3A2000746F70007208
:1052700069676874006C65667400726967687400B9
:105280006C65667400746F70006661696C6564209B
:105290002D206E6F7420666F756E640A00726967E8
:1052A0006874006C65667400002C2000496E697497
:1052B00069616C20706F736974696F6E3A20004188
:1052C0007420592D3400417420593000496E7661A4
:1052D0006C69642062656420636F727265637469CF
:1052E0006F6E206D61747269782E205265736574DB
:1052F00074696E6720746F206964656E746974796F
:105300002E00496E76616C69642062656420636F6B
:105310007272656374696F6E206D61747269782E44
:1053200020582F592061786573206172652066616D
:10533000722066726F6D206265696E67207065729B
:1053400070656E646963756C61722E00496E76617A
:105350006C69642062656420636F7272656374694E
:105360006F6E206D61747269782E2053686966745F
:10537000206F7574206F662072616E67652E00491C
:105380006E76616C69642062656420636F72726519
:105390006374696F6E206D61747269782E204C653C
:1053A0006E677468206F6620746865205820766583
:1053B00063746F72206F7574206F662072616E6700
:1053C000652E00496E76616C6964206265642063B5
:1053D0006F7272656374696F6E206D617472697843
:1053E0002E204C656E677468206F66207468652097
:1053F0005820766563746F72206F7574206F662015
:1054000072616E67652E0000292C206572726F72C2
:105410003A20002C2000293B207461726765743AA1
:105420002028002C2000293B206D65617375726572
:10543000642D636F727265637465643A2028002C72
:1054400020006D656173757265643A202800706F85
:10545000696E74202300446966666572656E6365D3
:1054600020616674657220636F7272656374696F20
:105470006E3A2000002C200063656E7465722C204B
:1054800061646A75737465643A2000002C200059C9
:1054900020766563746F722C2061646A757374651D
:1054A000643A2000002C20005820766563746F72E7
:1054B0002C2061646A75737465643A2000566572C5
:1054C00079206C6974746C6520736B6577206465F2
:1054D0007465637465642E204F7274686F676F6EB5
:1054E000616C697A696E672074686520617865739C
:1054F0002E0000292C206572726F723A20002C2039
:1055000000293B207461726765743A2028002C20C2
:1055100000293B20636F727265637465643A2028CA
:10552000002C2000206D656173757265643A202837
:1055300000706F696E742023004572726F72206173
:105540006674657220636F7272656374696F6E3A18
:105550002000002C200063656E746572206E6577F4
:105560002C20696E7665727465643A2000002C20E8
:10557000005920766563746F72206E65772C206900
:105580006E7665727465643A2000002C2000582005
:10559000766563746F72206E65772C20696E766510
:1055A000727465643A2000002C2000636F7272658B
:1055B0006374696F6E20616E676C65733A200000DA
:1055C0002C2000636F7272656374656420616E677E
:1055D0006C65733A2000002C2000636F7272656363
:1055E00074656420782F793A2000002C20002C204C
:1055F000002C2000636F7272656374696F6E207691
:105600006563746F723A2000697465726174696FC2
:105610006E3A200000292C206572726F723A2000C9
:105620002C2000293B207461726765743A202800A1
:105630002C2000206D656173757265643A20280026
:10564000706F696E74202300002C200063656E74F7
:1056500065722C20696E697469616C3A2000002CB7
:1056600020005920766563746F722C20696E69740E
:1056700069616C3A2000002C200058207665637424
:105680006F722C20696E697469616C3A20000000A9
:10569000E442FCFFFFBF000057430000C04200008F
:1056A000E44200004243000040410000C0420000CC
:1056B0004041FCFFFFBF0000E442FCFFFFBF0000D1
:1056C0005743FCFFFFBF000057430000C0420000EB
:1056D000E4420000C042000040410000C04200001F
:1056E0004041000042430000E44200004243000009
:1056F00057430000424345303A20005A3A200059AF
:105700003A2000583A20004D53312C4D533220504E
:10571000696E730A005A00205A3A00590020593A1B
:1057200000580020583A0024F4D43050C38E20C2D0
:10573000A24017828B7011127A910D816CD90AA840
:1057400061E108C7586607615143061E4B5D05C1FC
:1057500045A7041A411104093D98037139310340EA
:1057600036DB0265339102D4305402802E1D026371
:105770002CEE01752AC501B028A001102781018FE8
:105780002564012B244B01E0223401AC211F018D43
:10579000200D01801FFC00841EED00971DDF00B866
:1057A0001CD200E61BC600201BBC00641AB200B26B
:1057B00019A8000A19A0006A189900D11791004091
:1057C000178B00B516840031167E00B31579003AA8
:1057D000157300C7146F0058146A00EE1366008832
:1057E00013630025135E00C7125B006C125700158F
:1057F000125400C111510070114F0021114B00D6FD
:105800001049008D1047004610440002104200C0AD
:105810000F4000800F3E00420F3C00060F3B00CBC4
:105820000E3800930E37005C0E3500270E3400F35F
:105830000D3200C10D3100900D3000600D2E003290
:105840000D2D00050D2C00D90C2B00AE0C29008568
:105850000C29005C0C2700350C27000E0C2600E8F4
:105860000B2400C40B2400A00B23007D0B23005A43
:105870000B2100390B2100180B2000F80A1F00D95A
:105880000A1E00BB0A1E009D0A1D00800A1D00633F
:105890000A1C00470A1B002C0A1B00110A1A00F7F9
:1058A000091A00DD091900C4091900AB0919009291
:1058B0000917007B091800630917004C0916003608
:1058C000091600200916000A091500F5081500E060
:1058D000081400CC081400B8081400A408140090A0
:1058E0000813007D0812006B0813005808120046C8
:1058F00008120034081100230811001208110001D9
:10590000081100F0071000E0071000D0071000C0D9
:10591000071000B0070F00A107100091070E0083C9
:10592000070F0074070F0065070E0057070E0049A8
:10593000070E003B070D002E070E0020070D001379
:10594000070D0006070D00F9060C00ED060D00E03E
:10595000060C00D4060C00C8060C00BC060C00B0F7
:10596000060C00A4060B0099060C008D060B0082A5
:10597000060B0077060B006C060B0061060A005749
:10598000060B004C060A0042060A0038060A002EE2
:10599000060A0024060A001A060A00100609000773
:1059A000060A00FD050900F4050900EB050900E2FF
:1059B000050900D9050900D0050900C7050900BE81
:1059C000050900B5050800AD050800A50509009CFE
:1059D000050800940508008C050800840508007C73
:1059E000050800740508006C050700650508005DE2
:1059F000050700560508004E05070047050700404B
:105A000005080038050700310507002A05070023AF
:105A10000507001C050600160507000F050700080E
:105A200005060002050700FB040600F5040700EE6A
:105A3000040600E8040600E2040700DB040600D5C3
:105A4000040600CF040600C9040600C3040600BD16
:105A5000040600B7040600B1040500AC040600A665
:105A6000040600A00405009B0406009504050090B0
:105A70000406008A04050085040500800406007AF7
:105A800004050075040500700405006B040500663C
:105A9000040500610405005C04050057040500527C
:105AA0000405004D04050048040500430405003EBC
:105AB0000404003A04050035040500300404002CF9
:105AC00004050027040400230405001E0404001A32
:105AD00004040016040500110404000D0404000968
