:100000000C94CA340C94FB340C94FB340C94FB34E5
:100010000C94FB340C94FB340C94FB340C94FB34A4
:100020000C94FB340C94FB340C94FB340C94FB3494
:100030000C94FB340D945E6E0C94FB340C94FB34E6
:100040000C94FB340C94E0F20C94FB340C94FB34D1
:100050000C94FB340C94FB340D94800C0D9473675A
:100060000C94FB340C94913F0C94FB340C94FB34B3
:100070000C94FB340C94FB340C94FB340C94FB3444
:100080000C94FB340C94FB340C94FB340C94FB3434
:100090000C94FB340C94FB340C94FB340C94FB3424
:1000A0000C94FB340C94FB340C94FB340C94FB3414
:1000B0000C94FB340C94FB340C94FB340C94FB3404
:1000C0000C94FB340C94FB340C94FB340C94FB34F4
:1000D0000C94FB340C94FB340C94FB340C94FB34E4
:1000E0000C94FB340B0169013D0109011B012F0137
:1000F0005F01D100F700D5006B015901DB00F10071
:10010000DD00E700510163011501EF00EB004D0137
:100110001F01D3002D012B01130123010F016501E4
:100120003701FD0041012D0103015D01FF00E900E0
:10013000ED00DF000D01F900F30017013301F500B8
:100140000701D70043014F012901F3003501570191
:100150004901084AD73B3BCE016E84BCBFFDC12F8D
:100160003D6C74319ABD56833DDA3D00C77F11BEA8
:10017000D9E4BB4C3E916BAAAABE000000803F05AB
:10018000A84CCDB2D44EB93836A9020C50B99186DC
:1001900088083CA6AAAA2ABE000000803F000D9451
:1001A00035200D944B0D0D94C0680D94510D0D9498
:1001B00074690D943B1D0D94853A0D94C13A0D94CC
:1001C0004D690D94A5360D94D25D0D94CD290D94F5
:1001D000F03A0D945B690D94A7680D945E690D94D7
:1001E000A2680D94A23A0D9495690D946C690D94D2
:1001F0004D0D0D9457690D94F0620D9407690D949F
:100200002F690D94C8150D941B690D94B8380D9481
:1002100070690D94050D0D94CD0C0D9451690D94DC
:10022000E4680D942C6A0D94D2680D941E3B0D94D5
:1002300062690D9471540D941F0D0D94FD100D9471
:10024000B6680D94ED1A0D94DA680D9477140D9438
:1002500083140D9482690D94CA680D9439690D94C4
:100260002D0D0D94FC370D9466690D9488690D94DD
:10027000F8680D9492470D9457440D94F70C0D9423
:100280007B120D9411690D947A690D94D82C0D94FC
:10029000F9340D9490690D94F3370D94AC680D9476
:1002A0007E690D94FA3A0D94922E0D9405380D94B2
:1002B0008C690D946B3A0D94F2390D9425690D9467
:1002C000470D0D9452140D94043B0D94EE680D945B
:1002D0000E380D94DB0C0D94590D0D94114E4861A0
:1002E0007264636F6465642044656661756C742034
:1002F00053657474696E6773204C6F616465640044
:1003000053746F7265642073657474696E677320CB
:100310007265747269657665640046696C616D65C5
:100320006E742073657474696E67733A20446973E0
:1003300061626C6564002020204D32303020440022
:1003400046696C616D656E742073657474696E675F
:10035000733A002020204D3230392053004175740B
:100360006F2D526574726163743A20533D3020746E
:100370006F2064697361626C652C203120746F207A
:10038000696E7465727072657420657874727564D4
:10039000652D6F6E6C79206D6F76657320617320AB
:1003A0007265747261637473206F72207265636F1B
:1003B000766572696573002046002020204D32303A
:1003C000382053005265636F7665723A20533D457D
:1003D00078747261206C656E67746820286D6D2971
:1003E00020463A537065656420286D6D2F6D290095
:1003F000205A002046002020204D32303720530064
:10040000526574726163743A20533D4C656E677433
:100410006820286D6D2920463A5370656564202850
:100420006D6D2F6D29205A3A205A4C696674202828
:100430006D6D29002044002049002020204D3330DC
:10044000312050005049442073657474696E67739D
:100450003A00205A0020590020204D3230362058D2
:1004600000486F6D65206F666673657420286D6D3A
:10047000293A00204500205A002059002058002029
:10048000420020540020204D32303520530041647A
:1004900076616E636564207661726961626C657312
:1004A0003A20533D4D696E206665656472617465DE
:1004B00020286D6D2F73292C20543D4D696E2074BA
:1004C000726176656C20666565647261746520286A
:1004D0006D6D2F73292C20423D6D696E696D756DB0
:1004E000207365676D656E742074696D6520286D75
:1004F00073292C20583D6D6178696D756D205859B0
:10050000206A65726B20286D6D2F73292C20205A6C
:100510003D6D6178696D756D205A206A65726B203A
:10052000286D6D2F73292C2020453D6D6178696DF4
:10053000756D2045206A65726B20286D6D2F7329BB
:100540000020540020204D3230342053004163639A
:10055000656C65726174696F6E3A20533D616363C7
:10056000656C65726174696F6E2C20543D726574A0
:100570007261637420616363656C65726174696F35
:100580006E00204500205A0020590020204D3230B6
:10059000312058004D6178696D756D204163636548
:1005A0006C65726174696F6E20286D6D2F733229CE
:1005B0003A00204500205A0020590020204D3230BA
:1005C000332058004D6178696D756D2066656564EE
:1005D000726174657320286D6D2F73293A00204570
:1005E00000205A0020590020204D39322058005355
:1005F000746570732070657220756E69743A00536B
:10060000657474696E67732053746F726564002239
:10061000004D3232302053256900203A2000004C32
:10062000414E472053454C20464F524345440022FB
:1006300000205A3A0020593A0020453A00205A3A00
:100640000020593A00583A0020002E0020423A007B
:1006500020453A00543A0020573A0020453A0054C9
:100660003A002042403A0020403A00202F003A0051
:10067000205400202F0020423A00202F006F6B20D2
:10068000543A002569206D696E2C20256920736518
:1006900063004D65736820626564206C6576656CE7
:1006A000696E67206E6F74206163746976652E00D1
:1006B0000A002020000A4D65617375726564207020
:1006C0006F696E74733A000A5A20736561726368C9
:1006D000206865696768743A20002C004E756D20AB
:1006E000582C593A2000206D6963726F6E73004573
:1006F000786365737369766520626564206C6576DE
:10070000656C696E6720636F7272656374696F6E82
:100710003A2000473238205730000A00205A3A2049
:100720000020593A200020583A2000256920686F9F
:10073000757273202569206D696E75746573005438
:10074000494D454F55543A004D313130004D323905
:10075000002055706C6F616420696E2070726F6745
:100760007265737300466163746F727920524553EA
:10077000455400466562203136203230313700431F
:100780006F6D70696C65643A2000286E6F6E652C21
:100790002064656661756C7420636F6E6669672995
:1007A0000046656220313620323031372031303A10
:1007B00034333A30320073746172740025002020A3
:1007C00020202020002020202020200045524153BE
:1007D000494E4720616C6C2064617461004661631E
:1007E000746F727920524553455400222066616926
:1007F0006C65643A204275666665722066756C6C3D
:100800002100456E717565696E6720746F2074688C
:10081000652066726F6E743A2022002200456E7168
:100820007565696E6720746F207468652066726FE5
:100830006E743A20220022206661696C65643A2059
:100840004275666665722066756C6C21002200FF39
:10085000FFFF0000A0400000A0400000004000009A
:100860007A43333354439AD9454300000000CDCC3A
:100870000CC09A99193E00007A43000052430000D0
:10088000464300000000CDCC0CC09A99193E656328
:10089000686F3A004572726F723A00000021104290
:1008A0002063308440A550C660E770088129914AD2
:1008B000A16BB18CC1ADD1CEE1EFF1311210027359
:1008C000325222B5529442F772D662399318837B22
:1008D000B35AA3BDD39CC3FFF3DEE36224433420A9
:1008E000040114E664C774A44485546AA54BB52872
:1008F000850995EEE5CFF5ACC58DD5533672261139
:10090000163006D776F6669556B4465BB77AA719C1
:10091000973887DFF7FEE79DD7BCC7C448E5588600
:1009200068A7784008611802282338CCC9EDD98E11
:10093000E9AFF9488969990AA92BB9F55AD44AB798
:100940007A966A711A500A333A122AFDDBDCCBBF61
:10095000FB9EEB799B588B3BBB1AABA66C877CE468
:100960004CC55C222C033C600C411CAEED8FFDECB1
:10097000CDCDDD2AAD0BBD688D499D977EB66ED578
:100980005EF44E133E322E511E700E9FFFBEEFDD01
:10099000DFFCCF1BBF3AAF599F788F8891A981CADE
:1009A000B1EBA10CD12DC14EF16FE18010A100C2BD
:1009B00030E3200450254046706760B9839893FB6C
:1009C000A3DAB33DC31CD37FE35EF3B1029012F30D
:1009D00022D2323542145277625672EAB5CBA5A8BC
:1009E0009589856EF54FE52CD50DC5E234C324A05D
:1009F0001481046674476424540544DBA7FAB7994C
:100A000087B8975FE77EF71DC73CD7D326F23691AC
:100A100006B01657667676154634564CD96DC90E13
:100A2000F92FE9C899E9898AB9ABA94458654806FC
:100A3000782768C018E1088238A3287DCB5CDB3FAB
:100A4000EB1EFBF98BD89BBBAB9ABB754A545A374C
:100A50006A167AF10AD01AB32A923A2EFD0FED6C7B
:100A6000DD4DCDAABD8BADE89DC98D267C076C649C
:100A70005C454CA23C832CE01CC10C1FEF3EFF5D8B
:100A8000CF7CDF9BAFBABFD98FF89F176E367E55EC
:100A90004E745E932EB23ED10EF01E7C3C3E5E2B19
:100AA0003D3F2F5B5D3B2C2A225C004D38342058A3
:100AB0002059205A2045004D3234004D3233202534
:100AC00073006175746F25692E67000A002F000A94
:100AD000002E0044656C6574696F6E206661696CF8
:100AE00065642C2046696C653A200046696C652077
:100AF00064656C657465643A002E002E002E002E2D
:100B0000004E6F772066726573682066696C653A7F
:100B100020004E6F7720646F696E672066696C6590
:100B20003A20002220706F73002220706172656E7F
:100B3000743A2200535542524F5554494E45204372
:100B4000414C4C207461726765743A22007472796A
:100B5000696E6720746F2063616C6C207375622D01
:100B600067636F64652066696C6573207769746874
:100B700020746F6F206D616E79206C6576656C7383
:100B80002E204D4158206C6576656C2069733A00C3
:100B90005072757361206933204D4B3220676F743A
:100BA0006F7761005072757361206933204D4B324D
:100BB000206C697374610050727573612069332011
:100BC0004D4B3270726F6E74612E0050727573618E
:100BD000206933204D4B32206F6B0050727573616A
:100BE000206933204D4B322072656164792E007A82
:100BF0005F6D696E3A20007A5F6D61783A20005A25
:100C0000204F666673657400795F6D696E3A2000E7
:100C1000795F6D61783A200054616B00536900532D
:100C20006900416E6F0059657300785F6D696E3AB7
:100C30002000785F6D61783A200020576174636806
:100C4000646F6720526573657400496E666F726DDC
:100C500061636A65004D6F6E69746F72697A617263
:100C60000053636865726D61746120696E666F0020
:100C7000496E666F726D61636500496E666F2073C1
:100C8000637265656E0057616974696E6720666F8F
:100C9000722068656174657220616E6420626564AB
:100CA00020636F6F6C696E67004573706572616E6B
:100CB000646F206F7264656E657300417474656E55
:100CC00064656E646F207574656E74650057616944
:100CD0007420666F7220757365722E2E2E00577900
:100CE0006A61632066696C616D656E74005361634F
:100CF00061722066696C616D656E746F005363612B
:100D0000726963612066696C616D656E746F00560F
:100D1000796A6D6F75742066696C616D656E7400BB
:100D2000556E6C6F61642066696C616D656E7400F0
:100D3000556E6B6E6F776E20636F6D6D616E643A8A
:100D40002022004E617374726F696300416A75738B
:100D5000746172005265676F6C61004C6164697404
:100D60000054756E65006B617274612053445B467C
:100D70006C73684169725D00534420636172642042
:100D80005B466C73684169725D006B6172746120CF
:100D90005344205B6E6F726D616C5D005344206341
:100DA000617264205B6E6F726D616C5D0054656D85
:100DB00070657261747572610054656D7065726101
:100DC000747572610054656D7065726174757261DD
:100DD000005465706C6F74610054656D706572616C
:100DE0007475726500506F6D6F6300506F64706F43
:100DF000726100537570706F7274005A6174727A08
:100E0000796D6163206472756B00446574656E650D
:100E10007220696D70726573696F6E0041727265E0
:100E2000737461207374616D7061005A61737461D1
:100E3000766974207469736B0053746F70207072DC
:100E4000696E740050415241444100415252455331
:100E50005441544F2E0053544F505045442E2000BF
:100E6000537465707261746520746F6F2068696770
:100E7000683A2000437A61732063616C6B6F776915
:100E80007479203A005469656D706F20746F7461D5
:100E90006C203A0054656D706F207374616D7061E1
:100EA00020746F743A0043656C6B6F7679206361D0
:100EB00073203A00546F74616C207072696E7420F4
:100EC00074696D65203A0046696C616D656E7420C9
:100ED0006C61637A6E6965203A0046696C616D6584
:100EE0006E746F20746F74616C3A0046696C616D4A
:100EF000656E746F20746F743A0046696C616D653D
:100F00006E742063656C6B656D203A00546F74617C
:100F10006C2066696C616D656E74203A00437A617D
:100F200073206472756B75203A2020005469656DDA
:100F3000706F20646520696D702E3A0054656D7085
:100F40006F206469207374616D70613A004361734E
:100F5000207469736B75203A2020005072696E749A
:100F60002074696D653A20200046696C616D656E7C
:100F700074203A20200046696C616D656E746F20A4
:100F80003A20200046696C616D656E746F20757340
:100F900061746F3A0046696C616D656E74203A2029
:100FA000200046696C616D656E7420757365643AE6
:100FB00020200053746174797374796B6120200070
:100FC00045737461646973746963612020005374AC
:100FD00061746973746963686500537461746973DB
:100FE00074696B6120200053746174697374696360
:100FF000732020004572726F72202D20737461740B
:101000006963206D656D6F72792068617320626518
:10101000656E206F7665727772697474656E0050C4
:101020007265646B6F73630056656C6F63696461AE
:10103000640056656C6F6369746100527963686C13
:101040006F73740053706565640020536F66747726
:10105000617265205265736574004D6F64202020B5
:10106000202020205B63696368795D004D6F646FA9
:101070002020205B73696C656E63696F5D004D6F46
:10108000646F205B73696C656E7A696F736F5D0066
:101090004D6F64202020202020205B7469636879D4
:1010A0005D004D6F646520202020205B73696C65B6
:1010B0006E745D004D6F64205B7720777964616AA0
:1010C0006E6F73635D004D6F646F205B6D617320A5
:1010D000667565727A615D004D6F6465205B707244
:1010E000657374616E74655D004D6F6420205B767E
:1010F00079732E2076796B6F6E5D004D6F6465207D
:101100005B6869676820706F7765725D00506F6B10
:10111000617A206B72616E636F776B6900456E73E5
:10112000656E6120746F70652066696E616C005336
:101130007461746F2066696E65636F7273610053CA
:10114000746176206B6F6E632E207370696E2E0053
:1011500053686F7720656E642073746F70730055E9
:101160007374617769656E696100416A757374654E
:1011700000496D706F7374617A696F6E69004E61BA
:1011800073746176656E690053657474696E677314
:1011900000426C616420706F6C61637A656E696196
:1011A000004572726F7220646520636F6E657869A6
:1011B0006F6E004572726F7265206361626C616769
:1011C00067696F004368796261207A61706F6A6550
:1011D0006E6900576972696E67206572726F72007E
:1011E0004175746F746573742073616C6964610018
:1011F0004176766961206175746F7465737400530C
:10120000656C662074657374207374617274202039
:1012100000536B6F6E74726F6C756A203A00436F87
:101220006E74726F6C61203A00566572696669630C
:101230006172653A005A6B6F6E74726F6C756A7486
:1012400065203A00506C6561736520636865636B67
:10125000203A004175746F74657374204F4B0053CE
:10126000656C662074657374204F4B004E69652071
:10127000706F646C61637A6F6E6F202020004E6F18
:101280002068617920636F6E6578696F6E20200039
:101290004E6F6E20636F6E6E6573736F004E657A6E
:1012A00061706F6A656E6F20202020004E6F742081
:1012B000636F6E6E65637465640053696C6E696B11
:1012C000004D6F746F7265004D6F746F72004361F3
:1012D0006C656E742E2F5465726D6973746F720035
:1012E00052697363616C642E2F5465726D697374F7
:1012F0002E004865617465722F546865726D69735C
:10130000746F72004B72656369207369650056657E
:101310006E74696C61646F722067697261004769FD
:10132000726100546F6369207365005370696E6E5B
:10133000696E67004E656B7265636920736965004D
:1013400056656E74696C61646F72206E6F20676998
:101350007261004E6F6E2073692067697261004E82
:1013600065746F6369207365004E6F7420737069D4
:101370006E6E696E6700546573742077656E74795C
:101380006C61746F726100546573742064656C20C5
:1013900076656E74696C61646F720050726F76610D
:1013A0002064656C2076656E74696C61746F720080
:1013B000546573742076656E74696C61746F7275B0
:1013C0000046616E20746573740053656C667465C5
:1013D0007374206E69657564616E79004175746F10
:1013E000746573742066616C6C61646F0041757420
:1013F0006F746573742066616C6C69746F005365FB
:101400006C66746573742073656C68616C20200071
:1014100053656C6674657374206661696C656420DD
:1014200020004C6577792077656E74206E612064AA
:1014300079737A653F0056656E742E20656E206C58
:101440006120697A673F0056656E74205358207397
:10145000756C6C277567656C6C6F3F004C657679B1
:101460002076656E74206E61207472797363653FB7
:10147000004C65667420686F74656E642066616EEA
:101480003F004175746F74657374206572726F727A
:1014900021004175746F74657374206E65676174A3
:1014A00069766F0053656C6674657374206572723B
:1014B0006F72202100546F70652066696E2E206E59
:1014C0006F20746F632E0046696E65632E2066750B
:1014D0006F726920706F722E00456E6473746F7046
:1014E000206E6F742068697400546F706573206695
:1014F000696E616C0046696E65636F727361202866
:10150000322900456E6473746F707300546F706598
:101510002066696E616C0046696E65636F72736107
:1015200000456E6473746F700050727A6F646E69F8
:101530002077656E742E206472756B753F0056655A
:101540006E742E20616C206672656E74653F005665
:10155000656E74206469207374616D706120616EC2
:10156000742E3F00507265646E69207469736B6FEE
:1015700076792076656E743F0046726F6E742070C7
:1015800072696E742066616E3F004B6F6E74726F8D
:101590006C61205A2061786973202000436F6E745B
:1015A000726F6C2064656C20656A65205A00566510
:1015B0007269666963612061737365205A004B6FBD
:1015C0006E74726F6C61205A2061786973202000FC
:1015D000436865636B696E67205A20617869732080
:1015E00020004B6F6E74726F6C61205920617869B6
:1015F00073202000436F6E74726F6C2064656C20E2
:10160000656A652059005665726966696361206183
:101610007373652059004B6F6E74726F6C61205943
:101620002061786973202000436865636B696E6789
:10163000205920617869732020004B6F6E74726F9F
:101640006C6120582061786973202000436F6E74AC
:10165000726F6C2064656C20656A65205800566561
:1016600072696669636120617373652058004B6F0E
:101670006E74726F6C61205820617869732020004D
:10168000436865636B696E672058206178697320D1
:1016900020004B6F6E74726F6C6120686F74656EA2
:1016A00064202000436F6E74726F6C20686F7465E5
:1016B0006E642000566572696669636120756765AE
:1016C0006C6C6F004B6F6E74726F6C6120686F741E
:1016D000656E64202000436865636B696E672068EF
:1016E0006F74656E642020004B6F6E74726F6C6156
:1016F00020656E6473746F707300436F6E742E2078
:10170000746F7065732066696E616C0056657269EE
:10171000666963612066696E65636F727361004B11
:101720006F6E74726F6C6120656E6473746F70732A
:1017300000436865636B696E6720656E6473746FE0
:101740007073004B6F6E74726F6C61206265642001
:101750002020202000436F6E74726F6C206465201F
:1017600063616D61005665726966696361206C65CD
:1017700074746F004B6F6E74726F6C61206265647D
:10178000202020202000436865636B696E6720621B
:10179000656420202020200057737A7973746B6F62
:1017A000204F4B20202020202000546F646F2062A7
:1017B000696520004E657373756E206572726F7275
:1017C0006500567365204F4B2020202020202020CC
:1017D00020202000416C6C20636F7272656374205E
:1017E00020202020200043616D612F43616C656ED5
:1017F0007461646F72004C6574746F2F5269736307
:10180000616C642E00426564202F20486561746518
:1018100072004175746F74657374004175746F74F0
:101820006573740053656C667465737420202020A2
:1018300020202020200057726974696E6720746F21
:101840002066696C653A2000766F6C756D652E694F
:101850006E6974206661696C6564002053697A65FD
:101860003A20004B617274612077796A6574610077
:101870005461726A65746120726574697261646131
:101880000053442072696D6F737361004B61727411
:10189000612076796A6D75746100436172642072AB
:1018A000656D6F766564005344207072696E74696B
:1018B0006E67206279746520006F70656E206661C6
:1018C000696C65642C2046696C653A20006F706510
:1018D0006E526F6F74206661696C6564004B617253
:1018E000746120776C6F7A6F6E61005461726A6503
:1018F000746120636F6C6F6361646100534420699D
:101900006E736572697461004B6172746120766CEC
:101910006F7A656E61004361726420696E736572EF
:1019200074656400534420696E6974206661696C53
:101930000046696C652073656C6563746564004678
:10194000696C65206F70656E65643A20006572721F
:101950006F722077726974696E6720746F20666990
:101960006C650053442063617264206F6B004361B7
:101970006E6E6F74206F70656E207375626469722D
:101980000043616E6E6F7420656E746572207375AE
:10199000626469723A2000577A6E6F7769656E6982
:1019A00065206472756B7500526573756D69656E3F
:1019B000646F20696D7072652E0052697072656E79
:1019C0006469207374616D7061004F626E6F76653B
:1019D0006E69207469736B7500526573756D696EFD
:1019E00067207072696E74004B6F6E74796E756FDC
:1019F000776163005265616E7564617220696D7014
:101A00007265732E0052697072656E64692073741A
:101A1000616D706100506F6B7261636F766174000D
:101A2000526573756D65207072696E7400526573CE
:101A3000656E643A2000686F77746F2E70727573EC
:101A40006133642E637A00686F77746F2E707275DD
:101A5000736133642E637A00686F77746F2E7072CF
:101A600075736133642E636F6D00666F72756D2ED2
:101A7000707275736133642E637A00666F72756D70
:101A80002E707275736133642E637A00666F72759F
:101A90006D2E707275736133642E636F6D0070729A
:101AA00075736133642E637A007072757361336489
:101AB0002E637A00707275736133642E636F6D00EC
:101AC0004472756B2070727A657277616E7900531B
:101AD00074616D70612061626F7274697461005429
:101AE00069736B20707265727573656E00507269F0
:101AF0006E742061626F72746564004E6163697315
:101B00006E696A2070727A796369736B005920700C
:101B1000756C736520656C206D616E646F00592073
:101B200070756C736520656C206D616E646F00412B
:101B300020737469736B6E65746520746C6163697E
:101B4000746B6F00416E64207072657373207468EB
:101B500065206B6E6F62004E6167727A656A206401
:101B600079737A65210050726563616C2E20657807
:101B7000747275736F7221005072657269732E20D2
:101B80007567656C6C6F210050726564656872657D
:101B90006A746520747279736B7521005072656880
:101BA00065617420746865206E6F7A7A6C652100B7
:101BB00047727A616E69650050726563616C656E2B
:101BC0007461720050726572697363616C64610064
:101BD000507265646568726576005072656865610B
:101BE0007400506F77657255700050726F737A652C
:101BF00020637A656B6163004573706572610041B3
:101C00007370657474610050726F73696D206365E1
:101C10006B656A746500506C6561736520776169F6
:101C200074002020506C616E6E6572427566666548
:101C30007242797465733A200050727A65727761E6
:101C400063206472756B0050617573617220696DF9
:101C500070726573696F6E004D6574746920696E8A
:101C600020706175736100506F7A61737461766979
:101C700074207469736B00506175736520707269AC
:101C80006E74006F6B004F66660053696E206D6F57
:101C900076696D69656E746F004E657373756E203D
:101CA0006D6F76696D656E746F2E004E6F206D6F6F
:101CB00076652E004272616B206B617274792053DD
:101CC00044004E6F20686179207461726A657461A6
:101CD000205344004E657373756E61205344005A5F
:101CE00061646E61205344206B61727461004E6FB9
:101CF0002053442063617264004479737A61004622
:101D000075736F72005567656C6C6F0054727973F0
:101D10006B61004E6F7A7A6C65004272616B20666F
:101D2000696C616D656E74750046696C2E206E6F0E
:101D3000206361726761646F0046696C2E206E6F6C
:101D4000206361726761646F0046696C616D656EE6
:101D500074206E657A61766564656E0046696C61B3
:101D60006D656E74206E6F74206C6F6164656400C5
:101D70004B6F6C6F72207A616E6965637A79737AE2
:101D80002E00436F6C6F72206E6F20636C61726FF8
:101D900000436F6C6F72206E6F20636C61726F0016
:101DA0004261727661206E656E6920636973746149
:101DB00000436F6C6F72206E6F7420636C6561728C
:101DC000004E6965004E65004E6F0050726F737A69
:101DD00065207A616B7475616C697A6F77616300F5
:101DE00041637475616C697A617220706F722066EC
:101DF00061766F7200507265676120616767696F15
:101E0000726E612E0050726F73696D20616B747514
:101E1000616C697A756A74652E00506C65617365D2
:101E200020757067726164652E005779737A6C61F2
:101E3000206E6F776120776572736A6120666972C0
:101E40006D776172653A004E7565766F20666972CE
:101E50006D7761726520646973706F6E69626C651D
:101E60003A004E756F76612076657273696F6E65A4
:101E70002064656C206669726D77617265206469A3
:101E800073706F6E6962696C65005679736C61205E
:101E90006E6F7661207665727A65206669726D77FD
:101EA0006172653A004E6577206669726D7761727E
:101EB000652076657273696F6E20617661696C6109
:101EC000626C653A0050727A6573756E6163205A70
:101ED000004D6F766572205A004D756F7669205AF5
:101EE00000506F73756E6F7574205A004D6F766574
:101EF000205A0050727A6573756E61632059004DE7
:101F00006F7665722059004D756F766920590050C3
:101F10006F73756E6F75742059004D6F766520591B
:101F20000050727A6573756E61632058004D6F764C
:101F300065722058004D756F7669205800506F7398
:101F4000756E6F75742058004D6F7665205800458A
:101F500078747275736F72004D756F766920457372
:101F6000747275736F72650045787472756465720A
:101F7000004B616C69627261636A61205A2E205065
:101F8000727A656B7265632067616C6B652C20618A
:101F900062792070727A6573756E6163206F732049
:101FA0005A20646F20676F726E796368206B72616C
:101FB0006E636F77656B2E204E616369736E696A1D
:101FC0002C20627920706F7477696572647A696316
:101FD0002E0043616C696272616E646F205A2E201C
:101FE0004769726120656C20626F746F6E2070614A
:101FF000726120737562697220656C206361727210
:102000006F205A20686173746120676F6C7065205F
:102010007069657A6173207375706572696F72613A
:10202000732E20446573707565732068617A206330
:102030006C69632E0043616C696272617A696F6ECC
:1020400065205A2E2052756F74617265206C612074
:102050006D616E6F706F6C612070657220616C7A5B
:1020600061726520696C2063617272656C6C6F20AF
:102070005A2066696E6F20616C6C27616C74657A9A
:102080007A61206D617373696D612E20436C6963A1
:102090006B20706572207465726D696E6172652E59
:1020A000004B616C696272616365205A2E204F7427
:1020B0006163656E696D20746C616369746B612026
:1020C000706F73756E7465205A206F737520617A16
:1020D000206B7E686F726E696D7520646F72617AB5
:1020E000752E20506F74767264746520746C616311
:1020F00069746B656D2E0043616C6962726174690D
:102100006E67205A2E20526F746174652074686562
:10211000206B6E6F6220746F206D6F76652074681F
:1021200065205A206361727269616765207570204D
:10213000746F2074686520656E642073746F7070AE
:102140006572732E20436C69636B207768656E201F
:10215000646F6E652E004B616C69627261636A61C7
:102160002058595A2E2050727A656B726563206729
:10217000616C6B652C206162792070727A65737571
:102180006E6163206F73205A20646F20676F726ED8
:10219000796368206B72616E636F77656B2E204E7A
:1021A000616369736E696A2C20627920706F74773D
:1021B000696572647A69632E0043616C6962726159
:1021C0006E646F2058595A2E204769726120656CE1
:1021D00020626F746F6E2070617261207375626926
:1021E0007220656C20636172726F205A206861737F
:1021F000746120676F6C7065207069657A61732007
:102200007375706572696F7261732E2044657370A7
:102210007565732068617A20636C69632E00436181
:102220006C696272617A696F6E652058595A2E2006
:1022300052756F74617265206C61206D616E6F7094
:102240006F6C612070657220616C7A6172652069C3
:102250006C2063617272656C6C6F205A2066696EC7
:102260006F20616C6C27616C74657A7A61206D6196
:102270007373696D612E20436C69636B20706572A6
:10228000207465726D696E6172652E004B616C69B8
:1022900062726163652058595A2E204F74616365DC
:1022A0006E696D20746C616369746B6120706F730B
:1022B000756E7465205A206F737520617A206B7E6D
:1022C000686F726E696D7520646F72617A752E2009
:1022D000506F74767264746520746C616369746B9A
:1022E000656D2E0043616C6962726174696E67206E
:1022F00058595A2E20526F74617465207468652095
:102300006B6E6F6220746F206D6F766520746865E8
:10231000205A20636172726961676520757020744C
:102320006F2074686520656E642073746F707065CB
:1023300072732E20436C69636B207768656E20642E
:102340006F6E652E0052756368206F7369004D6F64
:1023500076657220656A6573004D756F76692061D8
:1023600073736500506F73756E6F7574206F73753E
:10237000004D6F76652061786973004D6573682044
:102380006C6976656C2E206C6574746F004D657396
:102390006820426564204C6576656C696E67004B09
:1023A000616C69627261636A610043616C69627247
:1023B0006163696F6E0043616C696272617A696F13
:1023C0006E65004B616C6962726163650043616CAC
:1023D0006962726174696F6E00207A20390020642E
:1023E00065203900207375203900207A20390020BB
:1023F0006F662039004F6B7265736C616D20777961
:10240000736F6B6F7363206F646E69657369656E5C
:1024100069612070756E6B7475206B616C69627296
:102420006163796A6E65676F004D65646972206CDF
:102430006120616C747572612064656C2070756ECA
:10244000746F206465206C612063616C69627261E5
:1024500063696F6E004D69737572617265206C27D8
:10246000616C74657A7A612064692072696665724C
:10247000696D656E746F2064656C2070756E746F25
:102480002064692063616C696272617A696F6E654C
:10249000004D6572696D207265666572656E636E6A
:1024A00069207679736B75206B616C696272616308
:1024B0006E69686F20626F6475004D656173757237
:1024C000696E67207265666572656E636520686512
:1024D00069676874206F662063616C6962726174F9
:1024E000696F6E20706F696E74004D61726B20664B
:1024F000696C616D656E74203130306D6D2066726F
:102500006F6D20657874727564657220626F64798E
:102510002E20436C69636B207768656E20646F6E54
:10252000652E004D656E7520676C6F776E65004D8A
:10253000656E75207072696E636970616C004D65BF
:102540006E75207072696E636970616C6500486CAD
:1025500061766E69206E616269646B61004D6169CC
:102560006E004D32323120496E76616C69642065AF
:102570007874727564657220004D32313820496E6E
:1025800076616C6964206578747275646572200088
:102590004D32303020496E76616C69642065787404
:1025A000727564657220005265706F7274696E672F
:1025B00020656E6473746F7020737461747573003A
:1025C0004649524D574152455F4E414D453A4D6146
:1025D000726C696E2056312E302E323B2053707251
:1025E000696E7465722F6772626C206D61736875B5
:1025F0007020666F722067656E36204649524D57CF
:102600004152455F55524C3A68747470733A2F2F9B
:102610006769746875622E636F6D2F707275736170
:1026200033642F50727573612D69332D506C75733F
:102630002F2050524F544F434F4C5F5645525349F1
:102640004F4E3A312E30204D414348494E455F545C
:102650005950453A5072757361206933204D4B32A1
:102660002045585452554445525F434F554E543AB5
:102670003120555549443A30303030303030302DEB
:10268000303030302D303030302D303030302D3053
:1026900030303030303030303030300A004D313072
:1026A0003920496E76616C6964206578747275644E
:1026B000657220004D31303520496E76616C696459
:1026C00020657874727564657220004D3130342055
:1026D000496E76616C6964206578747275646572A0
:1026E00020004C6F6F73652070756C6C65790057B6
:1026F00070726F7761647A2066696C616D656E7463
:1027000000506F6E65722066696C616D656E746FE6
:10271000004361726963612066696C616D656E7406
:102720006F005A61766573742066696C616D656EC1
:1027300074004C6F61642066696C616D656E740035
:102740005770726F772E2066696C616D656E747557
:102750000043617267616E646F2066696C2E00438E
:10276000617267616E646F2066696C2E005A6176D3
:102770006164656E692066696C616D656E74750073
:102780004C6F6164696E672066696C616D656E741B
:1027900000437A79737A637A2E206B6F6C6F72754F
:1027A0000043617267616E646F20636F6C6F7200CB
:1027B00043617267616E646F20636F6C6F72004378
:1027C000697374656E69206261727679004C6F611D
:1027D00064696E6720636F6C6F72005779626F7205
:1027E000206A657A796B610043616D626961206C72
:1027F00061206C656E677561200053656C657A6950
:102800006F6E61206C696E677561005679626572E2
:10281000206A617A796B610053656C656374206C22
:10282000616E677561676500506F6C736B69004519
:102830007370616E6F6C004974616C69616E6F00DA
:1028400043657374696E6100456E676C69736800F7
:1028500050415241444120444520454D4552472E68
:1028600000494E2054494C542E004B494C4C454491
:102870002E2000496E76616C6964206578747275EB
:10288000646572005770726F7761647A2066696C54
:10289000616D656E7400496E73657274612066695E
:1028A0006C616D656E746F00496E736572697265F7
:1028B0002066696C616D656E746F00566C6F7A741A
:1028C000652066696C616D656E7400496E73657232
:1028D000742066696C616D656E7400207A20390021
:1028E000206465203900207375203900207A203952
:1028F00000206F66203900506F7072617769616DDA
:102900002070726563797A796A6E6F73632070756F
:102910006E6B7475206B616C6962726163796A6E4B
:1029200065676F004D656A6F72616E646F206361E9
:102930006D612070756E746F2064652063616C69D1
:1029400062726163696F6E0050657266657A696F65
:102950006E2E20696C206C6574746F2070756E74B7
:102960006F2064692063616C696272617A2E005A1B
:102970006C657073756A6920707265736E6F7374BD
:10298000206B616C69627261636E69686F20626F4F
:10299000647500496D70726F76696E672062656458
:1029A0002063616C6962726174696F6E20706F6917
:1029B0006E74004B616C696272756A65205A0043DF
:1029C000616C696272616E646F205A0043616C6968
:1029D0006272616E646F205A004B616C696272753D
:1029E0006A69205A0043616C6962726174696E673A
:1029F000205A004B616C69627261636A61204F4BBF
:102A00000043616C6962726163696F6E204F4B00B5
:102A100043616C696272617A696F6E65204F4B0029
:102A20004B616C696272616365204F4B0043616C5E
:102A30006962726174696F6E20646F6E65004B61CC
:102A40006C696272756A205A0043616C69627261D6
:102A500072205A0043616C69627261205A004B61B6
:102A60006C6962726F766174205A0043616C6962AE
:102A700072617465205A0047727A616E6965204FF1
:102A80004B2E0043616C656E74616E646F206C69DF
:102A900073746F2E0052697363616C64616D656E4F
:102AA000746F20666174746F2E005A616872697663
:102AB000616E69204F4B2E0048656174696E672016
:102AC000646F6E652E0047727A616E69652E2E2ED8
:102AD0000043616C656E74616E646F2E2E2E005221
:102AE000697363616C64616D656E746F2E2E2E0068
:102AF0005A6168726976616E690048656174696ED1
:102B000067002046726565204D656D6F72793A20C9
:102B1000004472756B61726B61206E6965207A6F1B
:102B20007374616C61206A65737A637A6520736B74
:102B3000616C6962726F77616E612E2050726F7383
:102B40007A65206B6965726F7761632073696520B0
:102B5000696E737472756B636A612C20726F7A642C
:102B60007A69616C205A61637A796E616D792C2083
:102B7000706F64726F7A647A69616C2053656C66F9
:102B8000746573742E00496D707265736F72612085
:102B90006E6F20657374612063616C696272616439
:102BA0006120746F64617669612E20506F722066B7
:102BB00061766F72207573617220656C206D616E35
:102BC00075616C2C20656C206361706974756C6F25
:102BD0002046697273742073746570732C2073655A
:102BE0006C656363696F6E2043616C6962726174C6
:102BF000696F6E20666C6F772E005374616D706123
:102C00006E746520616E636F7261206E6F6E2063FB
:102C1000616C6962726174612E2053692070726503
:102C20006761206469207365677569726520696CE6
:102C3000206D616E75616C652C2063617069746FC5
:102C40006C6F205052494D492050415353492C201C
:102C500073657A696F6E652064656C6C6120636171
:102C60006C696272617A696F6E652E005469736B6C
:102C700061726E61206E6562796C61206A65737441
:102C800065207A6B616C6962726F76616E612E206D
:102C9000506F73747570756A74652070726F7369A4
:102CA0006D20706F646C65206D616E75616C752C44
:102CB000206B617069746F6C61205A6163696E6129
:102CC0006D652C206F6473746176656320506F733B
:102CD000747570206B616C6962726163652E00505F
:102CE00072696E74657220686173206E6F74206201
:102CF00065656E2063616C696272617465642079D8
:102D000065742E20506C6561736520666F6C6C6F06
:102D10007720746865206D616E75616C2C20636826
:102D20006170746572204669727374207374657083
:102D3000732C2073656374696F6E2043616C6962E4
:102D4000726174696F6E20666C6F772E0050727AB4
:102D500065706C797700466C756A6F00466C7573A8
:102D6000736F00507275746F6B00466C6F77002044
:102D70007A203400206465203400207375203400EC
:102D8000207A203400206F66203400537A756B61FE
:102D90006D2070756E6B7475206B616C6962726109
:102DA00063796A6E65676F20706F646B6C61646BCA
:102DB000690042757363616E646F2063616D6120A9
:102DC00070756E746F2064652063616C69627261F6
:102DD00063696F6E00526963657263612064656C3C
:102DE000206C6574746F2070756E746F2064692038
:102DF00063616C696272617A2E00486C6564616D12
:102E0000206B616C69627261636E6920626F64201D
:102E1000706F646C6F7A6B79005365617263686977
:102E20006E67206265642063616C696272617469B7
:102E30006F6E20706F696E7400446F6E65207361F1
:102E400076696E672066696C652E00446F6E65203A
:102E50007072696E74696E672066696C650049738B
:102E600020636F6C6F7220636C6561723F005779ED
:102E70006D69656E69632066696C616D656E74006D
:102E800043616D626961722066696C616D656E7423
:102E90006F0043616D622E2066696C616D656E74B2
:102EA0006F0056796D656E69742066696C616D6539
:102EB0006E74004368616E67652066696C616D655C
:102EC0006E7400507265646B6F73632077656E7407
:102ED0002E0056656E74696C61646F720056656C85
:102EE0006F636974612076656E746F6C61005279EE
:102EF00063686C6F73742076656E742E0046616E25
:102F000020737065656400656E717565696E672014
:102F10002200526F74617465206B6E6F6220756E53
:102F200074696C206D61726B207265616368657392
:102F300020657874727564657220626F64792E20E2
:102F4000436C69636B207768656E20646F6E652ED5
:102F5000002045787465726E616C205265736574EB
:102F6000005072696E7465722073746F707065645E
:102F70002064756520746F206572726F72732E20E5
:102F800046697820746865206572726F7220616E80
:102F90006420757365204D39393920746F2072654E
:102FA00073746172742E202854656D70657261743B
:102FB0007572652069732072657365742E20536580
:102FC000742069742061667465722072657374611F
:102FD0007274696E6729004E6F204C696E65204ED1
:102FE000756D626572207769746820636865636BCC
:102FF00073756D2C204C617374204C696E653A209A
:10300000004E6F20436865636B73756D207769743C
:1030100068206C696E65206E756D6265722C204C3F
:10302000617374204C696E653A20004C696E6520AE
:103030004E756D626572206973206E6F74204C61ED
:103040007374204C696E65204E756D6265722B310C
:103050002C204C617374204C696E653A20005072CC
:10306000696E7465722068616C7465642E206B698A
:103070006C6C28292063616C6C6564210063686551
:10308000636B73756D206D69736D617463682C205B
:103090004C617374204C696E653A2000424C414487
:1030A0003A0043485942413A004552524F523A0081
:1030B000456E642066696C65206C697374006F707E
:1030C000656E0054524947474552454400656E6459
:1030D00073746F7073206869743A20005265706F62
:1030E000736F2E2E2E00536F7370656E73696F6E43
:1030F000652E2E2E00536C6565702E2E2E0057798E
:103100006C61637A79632073696C6E696B690041E5
:103110007061676172206D6F746F726573004469CE
:10312000736162696C6974206D6F746F72690056A7
:1031300079706E6F7574206D6F746F727900446969
:103140007361626C652073746570706572730020C2
:10315000436F756E7420583A200057796D69616E1F
:1031600061206F6B3F0043616D626961646F206332
:103170006F727265632E3F0043616D626961746FA7
:1031800020636F72722E3F0056796D656E61206FFD
:103190006B3F004368616E67656420636F727265A0
:1031A00063746C793F00577963686C6F647A696304
:1031B00000456E667269617200526166667265648E
:1031C0006461005A63686C6164697400436F6F6C7A
:1031D000646F776E00446C61207072617769646C13
:1031E0002E206B616C69627261636A692070726F14
:1031F000737A65206F637A79736369632064797386
:103200007A652E20506F74772E2067757A696B6906
:10321000656D2E004C696D7069617220626F717509
:10322000696C6C6120706172612063616C696272AB
:103230006163696F6E2E20436C69636B20637561F7
:103240006E646F206163616265732E0050756C69F6
:103250007265206C277567656C6C6F2070657220D5
:103260006C612063616C696272617A696F6E652C52
:1032700020706F69206661726520636C69636B2ED4
:103280000050726F2075737065736E6F75206B617F
:103290006C696272616369206F63697374657465D8
:1032A0002070726F73696D207469736B6F766F75C0
:1032B00020747279736B752E20506F7476726474FB
:1032C0006520746C616369746B656D2E00506C656C
:1032D00061736520636C65616E20746865206E6F34
:1032E0007A7A6C6520666F722063616C69627261C4
:1032F00074696F6E2E20436C69636B207768656E0E
:1033000020646F6E652E004F626120776F7A6B6963
:1033100020646F6A656368616C7920646F20676FF1
:10332000726E656A2072616D793F00436172726FDF
:1033300073205A20697A712E2F6465722E2065736E
:1033400074616E20617272696261206D6178696D6D
:103350006F3F00492063617272656C6C69205A206E
:1033600073696E2F64657320736F6E6F20616C7468
:10337000657A7A61206D61783F00446F6A656C7987
:10338000206F6261205A20766F7A696B79206B7E9C
:10339000686F726E696D7520646F72617A753F0037
:1033A000417265206C65667420616E642072696785
:1033B0006874205A7E636172726961676573206107
:1033C0006C6C2075703F00204C61737420557064E4
:1033D000617465643A2000452063616C69627261C2
:1033E00074696F6E2066696E69736865642E20501B
:1033F0006C6561736520636C65616E20746865201F
:103400006E6F7A7A6C652E20436C69636B207768E7
:10341000656E20646F6E652E0057796D69616E610F
:10342000206F6B210043616D626961722062696582
:103430006E210043616D6269612E2072697573634C
:1034400069746F21005A6D656E61207573706573C4
:103450006E6121004368616E676520737563636503
:10346000737321004472756B207A205344004D65BC
:103470006E75206465205344005374616D70612043
:103480006461205344005469736B207A20534400D4
:103490005072696E742066726F6D205344004361F0
:1034A0006C696272617465204500526573657420B1
:1034B0006B616C6962722E2058595A0052657365AF
:1034C000742058595A206B616C6962722E005265E3
:1034D0007365742058595A2063616C6962722E00BA
:1034E0004B616C69627261636A612058595A00438A
:1034F000616C696272612058595A0043616C69625B
:1035000072612058595A004B616C6962726163653F
:103510002058595A0043616C696272617465205881
:10352000595A002042726F776E206F757420526571
:1035300073657400426567696E2066696C65206C0E
:10354000697374004B616C69627261636A612058CF
:10355000595A206E6965646F6B6C61646E612E20D0
:103560004C6577792070727A65646E692070756E2B
:103570006B74207A62797420777973756E696574DB
:103580007920646F2070727A6F64752E0043616CCD
:10359000696272617A696F6E2058595A20636F6D43
:1035A00070726F6D65746964612E2050756E746FF2
:1035B0002064656C616E7465726F20697A717569DB
:1035C0006572646F206E6F20616C63616E7A6162F8
:1035D0006C652E0043616C696272617A696F6E6519
:1035E0002058595A20636F6D70726F6D65737361E7
:1035F0002E2050756E746F20616E746572696F72E3
:10360000652073696E697374726F206E6F6E2072BD
:1036100061676769756E676962696C652E004B61E9
:103620006C6962726163652058595A206E657072C8
:1036300065736E612E204C65767920707265646EBC
:103640006920626F64206D6F6320767072656475A7
:103650002E0058595A2063616C6962726174696FF7
:103660006E20636F6D70726F6D697365642E204C90
:103670006566742066726F6E742063616C69627235
:103680006174696F6E20706F696E74206E6F742044
:10369000726561636861626C652E004B616C696282
:1036A000722E2058595A206E6965646F6B6C616484
:1036B0006E612E2050727A65646E69652070756E39
:1036C0006B7479206B616C6962722E205A62797416
:1036D000207779732E20646F2070727A6F64752E54
:1036E0000043616C696272617A696F6E2058595A41
:1036F00020636F6D70726F6D65746964612E205008
:10370000756E746F2064656C616E7465726F732082
:103710006E6F20616C63616E7A61626C65732E00FE
:1037200043616C696272617A696F6E652058595A9B
:1037300020636F6D70726F6D657373612E205075AD
:103740006E746920616E746572696F7269206E6F44
:103750006E207261676769756E676962696C692E50
:10376000004B616C6962726163652058595A206E22
:1037700065707265736E612E20507265646E69208B
:103780006B616C69627261636E6920626F6479203B
:103790006D6F63207670726564752E0058595A20DB
:1037A00063616C6962726174696F6E20636F6D70C2
:1037B000726F6D697365642E2046726F6E7420633C
:1037C000616C6962726174696F6E20706F696E748A
:1037D00073206E6F7420726561636861626C652E20
:1037E000004B616C69627261636A612058595A20AA
:1037F0007720706F727A61646B752E204F736965E4
:1038000020582F59206C656B6B6F20736B6F736E34
:10381000652E0043616C6962726163696F6E205846
:10382000595A20636F6E736567756964612E204510
:103830006A657320582F5920756E20706F636F2052
:10384000746F726369646F732E0043616C69627296
:10385000617A696F6E652058595A20636F6D70697F
:103860007574612E20476C69206173736920582F2D
:103870005920736F6E6F206C65676765726D656E3A
:10388000746520646973746F7274692E004B616C87
:103890006962726163652058595A207620706F7290
:1038A00061646B752E20582F59206F7379206D69D4
:1038B000726E65207A6B6F73656E652E0058595A6B
:1038C0002063616C6962726174696F6E20616C6CF7
:1038D0002072696768742E20582F592061786573AB
:1038E0002061726520736C696768746C7920736BF2
:1038F000657765642E004F73696520582F592073D2
:1039000061206D6F636E6F20736B6F736E652E2019
:10391000536B6F73206265647A6965206175742EDC
:10392000207779726F776E616E792070727A792064
:103930006472756B752E00582F59206D757920644F
:103940006973746F7273696F6E61646F2E204C615E
:1039500020646973746F7273696F6E20736572612E
:1039600020636F72726567696461206175746F6D41
:1039700061746963616D656E74652E00582F5920FE
:10398000666F7274656D656E746520646973746FBB
:1039900072746F2E204C6120646973746F72736946
:1039A0006F6E652076657272612720636F72726533
:1039B000747461206175746F6D61746963616D65A4
:1039C0006E74652E00582F59206F7379206A736FBB
:1039D000752073696C6E65207A6B6F73656E652EEA
:1039E000205A6B6F73656E6920627564652061751E
:1039F000746F6D617469636B79207679726F766E1E
:103A0000616E6F20707269207469736B752E005837
:103A10002F5920736B657765642073657665726CCA
:103A2000792E20536B65772077696C6C2062652056
:103A3000636F72726563746564206175746F6D6124
:103A4000746963616C6C792E004B616C6962722ED3
:103A50002058595A206E69657564616E612E204B3D
:103A6000616C6962726163796A6E792070756E6BE0
:103A70007420706F646B6C61646B69206E69657A29
:103A80006E616C657A696F6E792E0043616C696254
:103A9000726163696F6E2058595A2066616C6C615F
:103AA00064612E2050756E746F73206465206361AD
:103AB0006C6962726163696F6E20656E206C612053
:103AC00063616D61206E6F20656E636F6E747261ED
:103AD000646F732E0043616C696272617A696F6E04
:103AE000652058595A2066616C6C6974612E2049B2
:103AF0006C2070756E746F2064692063616C6962FC
:103B000072617A696F6E652073756C206C65747470
:103B10006F206E6F6E20652720737461746F207440
:103B2000726F7661746F2E004B616C6962726163B3
:103B3000652058595A2073656C68616C612E204B62
:103B4000616C69627261636E6920626F6420706F7C
:103B5000646C6F7A6B79206E656E616C657A656EE8
:103B60002E0058595A2063616C6962726174696FE2
:103B70006E206661696C65642E2042656420636115
:103B80006C6962726174696F6E20706F696E742007
:103B9000776173206E6F7420666F756E642E004BB4
:103BA000616C69627261636A612058595A206F6B57
:103BB0002E204F73696520582F5920736120707231
:103BC0006F73746F7061646C652E204772617475D9
:103BD0006C61636A65210043616C6962726163694B
:103BE0006F6E2058595A206F6B2E20456A657320DE
:103BF000582F592070657270656E646963756C61C9
:103C00007265732E2046656C696369746163696FC0
:103C10006E6573210043616C696272617A696F6ECF
:103C2000652058595A204F4B2E20476C69206173EC
:103C3000736920582F5920736F6E6F2070657270F2
:103C4000656E6469636F6C6172692E20436F6D707D
:103C50006C696D656E746921004B616C696272619B
:103C600063652058595A207620706F7261646B75B5
:103C70002E20582F59206F7379206A736F75206B2F
:103C80006F6C6D652E2047726174756C756A692161
:103C90000058595A2063616C6962726174696F6E71
:103CA000206F6B2E20582F59206178657320617228
:103CB000652070657270656E646963756C61722EE3
:103CC00020436F6E67726174756C6174696F6E7397
:103CD00021004B616C69627261636A612058595AB4
:103CE000206E6965706F776965647A696F6E612EA1
:103CF000205370726177647A6963207720696E73EC
:103D00007472756B636A692E0043616C69627261DB
:103D100063696F6E2058595A2066616C6C616461EA
:103D20002E20436F6E73756C74617220656C206D0C
:103D3000616E75616C20706F72206661766F722E95
:103D40000043616C696272617A696F6E65205859CF
:103D50005A2066616C6C6974612E20536920707200
:103D600065676120646920636F6E73756C7461723E
:103D70006520696C206D616E75616C652E004B610C
:103D80006C6962726163652058595A2073656C686A
:103D9000616C612E204E61686C65646E657465208F
:103DA000646F206D616E75616C752E0058595A20D4
:103DB00063616C6962726174696F6E206661696CBF
:103DC00065642E20506C6561736520636F6E73753A
:103DD0006C7420746865206D616E75616C2E004B8B
:103DE000616C6962722E2058595A206E696575643B
:103DF000616E612E204C6577792070727A65646EF1
:103E0000692070756E6B74207A62797420646F20FB
:103E100070727A6F64752E205779726F776E616356
:103E2000206472756B61726B652E0043616C696210
:103E3000726163696F6E2058595A2066616C6C61BB
:103E4000642E2050756E746F2064656C616E7465AD
:103E5000726F20697A7175696572646F206E6F2068
:103E6000616C63616E7A61626C652E0043616C699E
:103E70006272617A696F6E652058595A2066616C6A
:103E80006C6974612E2050756E746F20616E74655C
:103E900072696F72652073696E697374726F206ED8
:103EA0006F6E207261676769756E676962696C65BC
:103EB0002E004B616C6962726163652058595A200B
:103EC00073656C68616C612E204C65767920707228
:103ED00065646E6920626F64206D6F632076707216
:103EE0006564752E2053726F766E656A74652074F2
:103EF00069736B61726E752E0058595A2063616C3C
:103F00006962726174696F6E206661696C65642EA6
:103F1000204C6566742066726F6E742063616C69F4
:103F200062726174696F6E20706F696E74206E6F5B
:103F30007420726561636861626C652E004B616C10
:103F40006962722E2058595A206E69657564616ED7
:103F5000612E2050727A65642E2070756E6B7479B4
:103F6000206B616C6962722E207A62797420646FB2
:103F70002070727A6F64752E205779726F776E6138
:103F800063206472756B61726B652E0043616C69AE
:103F900062726163696F6E2058595A2066616C6C59
:103FA00061642E2050756E746F2064656C616E7450
:103FB00065726F73206E6F20616C63616E7A6162EF
:103FC0006C65732E0043616C696272617A696F6E11
:103FD000652058595A2066616C6C6974612E2050B6
:103FE000756E746920616E746572696F7269206E96
:103FF0006F6E207261676769756E676962696C6967
:104000002E004B616C6962726163652058595A20B9
:1040100073656C68616C612E20507265646E6920F6
:104020006B616C69627261636E6920626F64792092
:104030006D6F63207670726564752E2053726F7693
:104040006E656A7465207469736B61726E752E009B
:1040500058595A2063616C6962726174696F6E208D
:104060006661696C65642E2046726F6E74206361B0
:104070006C6962726174696F6E20706F696E7473BF
:10408000206E6F7420726561636861626C652E00DA
:104090004B616C69627261636A61206E6965756407
:1040A000616E612E2053656E736F72206F646C6158
:1040B000637A6F6E79206C75622075737A6B6F64AA
:1040C0007A2E206B6162656C2E20437A656B616D80
:1040D000206E612072657365742E004E6976656C82
:1040E0006163696F6E2066616C6C6164612E205340
:1040F000656E736F7220646573636F6E6563746160
:10410000646F206F206361626C65732064616E610F
:10411000646F732E204573706572616E646F2072D8
:10412000657365742E004C6976656C6C616D656EA7
:10413000746F206C6574746F2066616C6C69746F49
:104140002E2053656E736F726520646973636F6EA2
:104150002E206F204361766F2044616E6E2E2049C1
:104160006E20617474657361206469207265736583
:10417000742E004B616C696272616365205A207312
:10418000656C68616C612E2053656E736F72206A76
:1041900065206F64706F6A656E79206E65626F204E
:1041A000707265727573656E79206B6162656C2ED5
:1041B0002043656B616D206E612072657365742E9E
:1041C00000426564206C6576656C696E6720666187
:1041D000696C65642E2053656E736F722064697319
:1041E000636F6E6E6563746564206F7220636162D5
:1041F0006C652062726F6B656E2E20576169746901
:104200006E6720666F722072657365742E004B6155
:104210006C69627261636A61206E69657564616E62
:10422000612E2053656E736F72206E696520646F16
:10423000746B6E616C2E205A616E6965637A797356
:104240007A2E206479737A613F20437A656B616DC1
:10425000206E612072657365742E004E6976656C00
:104260006163696F6E2066616C6C6164612E2053BE
:10427000656E736F72206E6F2066756E63696F6E08
:10428000612E204573636F6D62726F7320656E20BF
:10429000426F7175692E3F204573706572616E645F
:1042A0006F2072657365742E004C6976656C6C6165
:1042B0006D656E746F206C6574746F2066616C6CD4
:1042C00069746F2E4E6F5269737053656E736F729F
:1042D0002052657369647569207375207567656C14
:1042E0006C6F3F20496E206174746573612064694E
:1042F0002072657365742E004B616C696272616334
:1043000065205A2073656C68616C612E2053656E60
:10431000736F72206E657365706E756C2E205A6EA9
:104320006563697374656E6120747279736B613F44
:104330002043656B616D206E612072657365742E1C
:1043400000426564206C6576656C696E6720666105
:10435000696C65642E2053656E736F7220646964A6
:104360006E7420747269676765722E20446562728C
:104370006973206F6E206E6F7A7A6C653F2057618B
:104380006974696E6720666F722072657365742E3A
:10439000004B616C69627261636A61205A206E69C8
:1043A000657564616E612E2053656E736F72206453
:1043B0006F746B2E207A61207779736F6B6F2E206C
:1043C000437A656B616D206E612072657365742E32
:1043D000004E6976656C6163696F6E2066616C6C16
:1043E0006164612E2053656E736F722066756E6313
:1043F000696F6E612064656D61736961646F2074BB
:10440000656D7072616E6F2E204573706572616E9E
:10441000646F2072657365742E004C6976656C6CF0
:10442000616D656E746F206C6574746F2066616C6D
:104430006C69746F2E526973702073656E736F723E
:10444000652074726F70706F2070726573746F493D
:104450006E20617474657361206469207265736590
:10446000742E004B616C696272616365205A20731F
:10447000656C68616C612E2053656E736F7220737A
:1044800065706E756C207072696C697320767973D3
:104490006F6B6F2E2043656B616D206E61207265BE
:1044A0007365742E00426564206C6576656C696E78
:1044B00067206661696C65642E2053656E736F7248
:1044C0002074726967676572656420746F6F206815
:1044D0006967682E2057616974696E6720666F721C
:1044E0002072657365742E0047727A616E6965206B
:1044F00073746F6C696B612E2E004261736520438B
:10450000616C656E74616E646F0050696174746F84
:104510002072697363616C64616D2E005A61687208
:104520006976616E69206265640042656420486551
:104530006174696E670053746F6C696B204F4B2E0A
:104540000042617365206C6973746F2E005069615D
:1045500074746F20666174746F2E00426564204F1E
:104560004B2E0042656420646F6E650057207072A8
:1045700061776F205B756D5D00446572656368618E
:104580002020205B756D5D004C61746F2064657345
:1045900074726F20756D0056707261766F205B7556
:1045A0006D5D005269676874207369646520756D7C
:1045B00000526573657400446F2074796C75202017
:1045C0005B756D5D00417472617320202020205B5B
:1045D000756D5D004C61746F20706F7374657269E6
:1045E0006F726500567A61647520205B756D5D00A1
:1045F0005265617220736964652020756D004B6F90
:1046000072656B746120706F646B6C61646B6900C0
:10461000436F72722E206465206C612063616D614E
:1046200000436F7272657A2E206C69762E6C657409
:10463000746F004B6F72656B636520706F646C6F95
:104640007A6B7900426564206C6576656C20636FD7
:1046500072726563740057206C65776F20205B75FC
:104660006D5D00497A71756965726461205B756D75
:104670005D004C61746F2073696E697374726F2092
:10468000756D00566C65766F20205B756D5D004C16
:1046900065667420736964652020756D00446F2021
:1046A00070727A6F6475205B756D5D004164656C36
:1046B000616E746520205B756D5D004C61746F20C8
:1046C00061746572696F726520756D0056707265F0
:1046D0006475205B756D5D0046726F6E7420736942
:1046E000646520756D0053746F6C696B0042617373
:1046F00065004C6574746F00426564004F646C65BE
:10470000676C6F7363206479737A79206F642070AB
:104710006F646B6C61646B69206E6965206A657398
:104720007420736B616C6962726F77616E612E20A9
:10473000506F73746570756A207A676F646E69650F
:10474000207A20696E737472756B636A6120726F70
:104750007A647A69616C205A61637A796E616D79E5
:104760002C20706F64726F7A647A69616C204B617F
:104770006C69627261636A61207069657277737ACD
:10478000656A20776172737477792E004469737457
:10479000616E63696120656E747265206C61207062
:1047A000756E7461206465206C6120626F7175693B
:1047B0006C6C612079206C6120737570657266691C
:1047C000636965206465206C612063616D61206EA2
:1047D0006F2066696A6164612061756E2E20506F7A
:1047E00072206661766F72207369676120656C2044
:1047F0006D616E75616C2C206361706974756C6F8E
:104800002046697273742073746570732C2073650D
:104810006363696F6E204669727374206C61796599
:10482000722063616C6962726174696F6E2E0044FC
:10483000697374616E7A6120747261206C6120709A
:10484000756E74612064656C6C277567656C6C6F40
:104850002065206C61207375706572666963696597
:104860002064656C206C6574746F206E6F6E2061BF
:104870006E636F726120696D706F7374612E205367
:104880006920707265676120646920736567756966
:10489000726520696C206D616E75616C652C20639A
:1048A000617069746F6C6F204669727374207374E1
:1048B0006570732C2073657A696F6E652046697226
:1048C0007374206C617965722063616C69627261D6
:1048D00074696F6E2E004E656E69207A6B616C692B
:1048E00062726F76616E6120767A64616C656E6F5C
:1048F000737420747279736B79206F642074697398
:104900006B6F766520706F646C6F7A6B792E2050B8
:104910006F73747570756A74652070726F73696DEA
:1049200020706F646C65206D616E75616C752C20F4
:104930006B617069746F6C61205A6163696E616D3F
:10494000652C206F64737461766563204E617374A7
:104950006176656E69207072766E69207672737406
:1049600076792E0044697374616E636520626574A4
:104970007765656E20746970206F662074686520A5
:104980006E6F7A7A6C6520616E642074686520624F
:104990006564207375726661636520686173206E5B
:1049A0006F74206265656E20736574207965742E5E
:1049B00020506C6561736520666F6C6C6F77207436
:1049C0006865206D616E75616C2C20636861707420
:1049D00065722046697273742073746570732C203D
:1049E00073656374696F6E204669727374206C61BD
:1049F0007965722063616C6962726174696F6E2E91
:104A000000446F7374726F6A656E6965206F7379A5
:104A1000205A004D6963726F7061736F205A0043B2
:104A20006F6D70656E73617A696F6E65205A0044B0
:104A30006F6C6164656E69206F7379205A004C69F0
:104A400076652061646A757374205A0041646A75E2
:104A50007374696E67205A004C6C657661722061D0
:104A60006C206F726967656E0054726F7661206F9B
:104A7000726967696E65004175746F20686F6D6556
:104A800000207C20417574686F723A200041637485
:104A90006976652045787472756465723A2000DB2A
:104AA0000BCB0BB70BA40B900BEF0BF70BFF0B080B
:104AB0000C100C260C220C1F0C1C0C180C2A0C328F
:104AC0000C3A0C7A0C700C610C550C4A0C860CCD0F
:104AD0000CCD0CBB0CA90CCD0C200D0F0DFD0CED5D
:104AE0000CDE0C300D610D5B0D540D4C0D430D783B
:104AF0000D780D780D780D660D9C0D9C0D9C0D9C10
:104B00000D8A0DD90DD10DC50DB90DAD0DF30DEB00
:104B10000DF30DF30DE50D390E2B0E1C0E0A0EFBD9
:104B20000D560E560E4B0E440E560E600EB40EA6CB
:104B30000E940E850E740E0C0FFA0EEB0EDA0EC7E5
:104B40000E5B0F4D0F3C0F2C0F1D0FA20F950F8406
:104B50000F760F690FE70FDA0FCE0FC00FB30FF408
:104B60000F44103B10321028101F104A10A2109052
:104B7000107E106C105A10FB10E910D810C610B43B
:104B80001050113F112F111D110D1188117E11713F
:104B9000116A115F11D311C411B311A1119111FF49
:104BA00011FF11F011E011FF114412351229121EEC
:104BB0001211125F125F1253125F125F12AC129D3C
:104BC0001290127E126C12C812C812C112C812BA08
:104BD00012F212F212E012CE12F2122B1323131E53
:104BE000130E13041369135F13531340133413C1CB
:104BF00013B0139B13871376131014FE13ED13DCFD
:104C000013CA1371145C14471436142214A414A488
:104C10001492148214A414D914D914C714B514D935
:104C20001403150315F514E914031521152115179F
:104C3000150C152115791564154F153E152915D03C
:104C400015BE15AE159C158A15281616160616F4EF
:104C500015E21580166E165E164C163A16D616C458
:104C600016B416A416921631171F170C17FA16E869
:104C70001686177417651755174317D417C217B43C
:104C800017AA17981705180518F617E61705182418
:104C90001824181B1812182418361848185B189A6C
:104CA000188C18811870186318A718B918CD181621
:104CB000190819FC18EB18DD18241931193F194D82
:104CC0001963196E198119D919CA19BA19A819972E
:104CD00019201A151A051AF419E8192D1A581A4725
:104CE0001A581A581A361A8C1A7B1A8C1A8C1A6A85
:104CF0001AB41AA91AB41AB41A9E1AED1ADF1ACFE6
:104D00001AED1AC01A441B2F1B1E1B0D1BFB1A9CED
:104D10001B881B781B661B571BDA1BD01BC41BB8D8
:104D20001BB01BE21B161C071CFF1BF81BEA1B22F7
:104D30001C771C671C581C471C391C831C861CAB29
:104D40001CAB1C991C8A1CAB1CEE1CDF1CD41CC2A7
:104D50001CB41C131D0C1D051DFF1CF91C5C1D49FA
:104D60001D391D291D1A1DB11DA01D911D821D700B
:104D70001DC81DC51DC81DC81DC11D1A1E051EF557
:104D80001DE01DCB1DA51E8A1E621E471E2A1EEC9D
:104D90001EE11ED91ED11EC51E1A1F0F1F071FFFA1
:104DA0001EF31E481F3D1F351F2D1F211F681F6842
:104DB0001F581F4F1F681FF720A1203520D21F71D9
:104DC0001FE4228C221E22B921562171236423590B
:104DD000234E2345238D238D237B238D238D23CDAC
:104DE00023C323B623AA239F23EF23EA23E423DE4E
:104DF00023D923BA24912455242924F523EA245DB8
:104E0000254E253E252F252325622579259025A78A
:104E100025C0259D26B426CB26E22632272227113F
:104E2000270127EF2680276D275F2751274027CDB1
:104E300027BF27B027A127912718280B28FA27E892
:104E400027DB274828402837282F2828286A286A5F
:104E500028612850286A287328CB28BB28A82896C0
:104E6000288428F128EC28E628E028DB2893296FFD
:104E70002948292429F728E529D929CC29BF29B38C
:104E8000292D2A202A102A012AF3296B2A5E2A5466
:104E90002A492A3E2AB82AAA2A952A832A772AFA50
:104EA0002AF02ADF2AD12AC62A022BDF2C6C2CFA00
:104EB0002B862B112B6A2D632D5C2D562D4D2D85A8
:104EC0002D802D7A2D742D6F2D192EFA2DD52DB202
:104ED0002D8B2D392E4B2E5E2EB32EA22E922E8090
:104EE0002E6E2EFD2EEE2EDD2ED22EC32E072F126D
:104EF0002F512F612FD72F01302B305E307D30A9FD
:104F000030A230A930A9309C30B030BE30C330CD93
:104F100030F530F530E630DC30F5303E312F311EE3
:104F2000310F31FE304F3193318831783166315A4B
:104F300031CC31C331B931B131A631CD3281324CAE
:104F4000321432D531A0337A3353332B330733C77E
:104F500033D73354344534333425341934903486BC
:104F60003479346E3464349E34CE34BC34CE34CE92
:104F700034AA3415350735FB34EF34E034233534A7
:104F80003552361E36D4358D3544359C3761372041
:104F900037E1369B36BD388D384A381338E1370F44
:104FA0003AC5397C393739F638623B283BD53A8BDC
:104FB0003A493A913C593C153CD73B9F3BAC3D7E2E
:104FC0003D413D093DD23CF93EB23E6C3E2B3EDFB9
:104FD0003D50400240C53F8C3F3D3FC1417341269B
:104FE00041DB4090404143F842A9425B420E42A55A
:104FF0004463441A44D14391432A451C450A45FA67
:1050000044E84463455B454D4541453645A34597D6
:1050100045884579456C45B145F045E445D445C5DD
:1050200045B7454446334621461046FE458F4683E4
:1050300046724663465646D846CC46BB46AC469D6D
:1050400046F846F846F246ED46E6466449D6482F0D
:10505000488C47FC463E4A2F4A1F4A134A014A4C95
:105060004A774A774A694A584A774A814A8D4A4577
:105070007872656D65207370616E206F662074684C
:1050800065205A2076616C7565732100626F7474B7
:105090006F6D00746F700000506F696E74206865EA
:1050A0006967687420746F6F20736D616C6C3A204F
:1050B000007269676874006C6566740000506F69FF
:1050C0006E7420776964746820746F6F20736D61EB
:1050D0006C6C3A2000002C20003A200046696E617A
:1050E0006C2063616C63756C6174656420626564D7
:1050F00020706F696E74200043616C63756C61741D
:10510000696F6E206F6620746865206D61636869E1
:105110006E6520736B657720616E64206F666673C1
:105120006574206661696C65642E00002C20003A6D
:10513000200046696E616C206D65617375726564EF
:105140002062656420706F696E74200000206661C3
:10515000696C65642E204C6F776572696E67207A82
:1051600020746F20002C20697465726174696F6E01
:105170002000496D70726F76696E672062656420E9
:10518000706F696E742000002C207A002C206974E6
:1051900065726174696F6E2000496D70726F766917
:1051A0006E672062656420706F696E7420004174C0
:1051B00020592D3400417420593000002C20002C3F
:1051C000200020004D656173757265642000002C1D
:1051D000200041646A757374656420706F7369742C
:1051E000696F6E3A2000002C20683A002C20646D14
:1051F00061783A005061727469616C20706F696EF9
:105200007420657374696D6174656420726164698A
:10521000757320746F6F20736D616C6C3A200000A1
:105220005061727469616C20706F696E742064697A
:10523000616D6574657220746F6F20736D616C6C45
:105240003A2000746F70007269676874006C65665C
:1052500074007269676874006C65667400746F70BE
:10526000006661696C6564202D206E6F7420666F26
:10527000756E640A007269676874006C6566740014
:10528000002C2000496E697469616C20706F73692D
:1052900074696F6E3A2000417420592D34004174B6
:1052A00020593000496E76616C6964206265642023
:1052B000636F7272656374696F6E206D6174726979
:1052C000782E20526573657474696E6720746F2040
:1052D0006964656E746974792E00496E76616C69D3
:1052E000642062656420636F7272656374696F6EB7
:1052F000206D61747269782E20582F59206178656D
:105300007320617265206661722066726F6D206223
:1053100065696E672070657270656E646963756C2F
:1053200061722E00496E76616C696420626564204A
:10533000636F7272656374696F6E206D61747269F8
:10534000782E205368696674206F7574206F66200C
:1053500072616E67652E00496E76616C69642062C9
:10536000656420636F7272656374696F6E206D612E
:10537000747269782E204C656E677468206F6620A1
:10538000746865205820766563746F72206F757439
:10539000206F662072616E67652E00496E76616CC3
:1053A00069642062656420636F7272656374696FFB
:1053B0006E206D61747269782E204C656E6774681A
:1053C000206F6620746865205820766563746F725C
:1053D000206F7574206F662072616E67652E000005
:1053E000292C206572726F723A20002C2000293B14
:1053F000207461726765743A2028002C2000293BD4
:10540000206D656173757265642D636F727265637B
:105410007465643A2028002C20006D6561737572F4
:1054200065643A202800706F696E74202300446917
:1054300066666572656E6365206166746572206379
:105440006F7272656374696F6E3A2000002C2000E1
:1054500063656E7465722C2061646A75737465642B
:105460003A2000002C20005920766563746F722C5E
:105470002061646A75737465643A2000002C200012
:105480005820766563746F722C2061646A7573743A
:1054900065643A200056657279206C6974746C6595
:1054A00020736B65772064657465637465642E2072
:1054B0004F7274686F676F6E616C697A696E67208E
:1054C00074686520617865732E0000292C20657250
:1054D000726F723A20002C2000293B2074617267A1
:1054E00065743A2028002C2000293B20636F7272DB
:1054F00065637465643A2028002C2000206D656186
:1055000073757265643A202800706F696E74202389
:10551000004572726F7220616674657220636F72EB
:1055200072656374696F6E3A2000002C2000636519
:105530006E746572206E65772C20696E7665727464
:1055400065643A2000002C20005920766563746F52
:1055500072206E65772C20696E7665727465643A88
:105560002000002C20005820766563746F72206E36
:1055700065772C20696E7665727465643A20000048
:105580002C2000636F7272656374696F6E20616EA8
:10559000676C65733A2000002C2000636F7272659F
:1055A0006374656420616E676C65733A2000002C3B
:1055B0002000636F7272656374656420782F793A96
:1055C0002000002C20002C20002C2000636F727221
:1055D000656374696F6E20766563746F723A20003C
:1055E000697465726174696F6E3A200000292C201D
:1055F0006572726F723A20002C2000293B20746182
:10560000726765743A2028002C2000206D65617354
:10561000757265643A202800706F696E74202300EB
:10562000002C200063656E7465722C20696E6974AD
:1056300069616C3A2000002C200059207665637463
:105640006F722C20696E697469616C3A2000002CBD
:1056500020005820766563746F722C20696E69741F
:1056600069616C3A20000000E442FCFFFFBF0000CB
:1056700057430000C0420000E442000042430000E3
:1056800040410000C04200004041FCFFFFBF00005D
:10569000E442FCFFFFBF00005743FCFFFFBF0000D8
:1056A00057430000C0420000E4420000C042000036
:1056B00040410000C0420000404100004243000061
:1056C000E44200004243000057430000424345309B
:1056D0003A20005A3A2000593A2000583A20004D0A
:1056E00053312C4D53322050696E730A005A0020FA
:1056F0005A3A00590020593A00580020583A0024DC
:10570000F4D43050C38E20C2A24017828B70111285
:105710007A910D816CD90AA861E108C758660761C2
:105720005143061E4B5D05C145A7041A41110409EA
:105730003D9803713931034036DB0265339102D461
:10574000305402802E1D02632CEE01752AC501B073
:1057500028A001102781018F2564012B244B01E033
:10576000223401AC211F018D200D01801FFC00841B
:105770001EED00971DDF00B81CD200E61BC60020FE
:105780001BBC00641AB200B219A8000A19A0006A72
:10579000189900D117910040178B00B5168400317D
:1057A000167E00B31579003A157300C7146F0058C0
:1057B000146A00EE1366008813630025135E00C7A9
:1057C000125B006C12570015125400C11151007089
:1057D000114F0021114B00D61049008D1047004693
:1057E00010440002104200C00F4000800F3E0042F3
:1057F0000F3C00060F3B00CB0E3800930E37005CC9
:105800000E3500270E3400F30D3200C10D3100902B
:105810000D3000600D2E00320D2D00050D2C00D92D
:105820000C2B00AE0C2900850C29005C0C270035E0
:105830000C27000E0C2600E80B2400C40B2400A04B
:105840000B23007D0B23005A0B2100390B2100187C
:105850000B2000F80A1F00D90A1E00BB0A1E009D7B
:105860000A1D00800A1D00630A1C00470A1B002C49
:105870000A1B00110A1A00F7091A00DD091900C4F1
:10588000091900AB091900920917007B0918006378
:105890000917004C09160036091600200916000ADF
:1058A000091500F5081500E0081400CC081400B82C
:1058B000081400A4081400900813007D0812006B5F
:1058C000081300580812004608120034081100237B
:1058D0000811001208110001081100F0071000E083
:1058E000071000D0071000C0071000B0070F00A17C
:1058F00007100091070E0083070F0074070F006563
:10590000070E0057070E0049070E003B070D002E3B
:10591000070E0020070D0013070D0006070D00F904
:10592000060C00ED060D00E0060C00D4060C00C8C5
:10593000060C00BC060C00B0060C00A4060B009977
:10594000060C008D060B0082060B0077060B006C20
:10595000060B0061060A0057060B004C060A0042BF
:10596000060A0038060A002E060A0024060A001A53
:10597000060A001006090007060A00FD050900F4E2
:10598000050900EB050900E2050900D9050900D069
:10599000050900C7050900BE050900B5050800ADE9
:1059A000050800A50509009C050800940508008C61
:1059B000050800840508007C050800740508006CD3
:1059C000050700650508005D050700560508004E3F
:1059D00005070047050700400508003805070031A6
:1059E0000507002A050700230507001C0506001609
:1059F0000507000F0507000805060002050700FB64
:105A0000040600F5040700EE040600E8040600E2C0
:105A1000040700DB040600D5040600CF040600C915
:105A2000040600C3040600BD040600B7040600B166
:105A3000040500AC040600A6040600A00405009BB3
:105A400004060095040500900406008A04050085FC
:105A5000040500800406007A040500750405007042
:105A60000405006B04050066040500610405005C84
:105A700004050057040500520405004D04050048C4
:105A8000040500430405003E0404003A0405003503
:105A9000040500300404002C04050027040400233E
:105AA0000405001E0404001A040400160405001175
:105AB0000404000D040400090405000404040000AB
:105AC000040400FC030400F8030400F4030400F0E1
:105AD000030400EC030400E8030400E4030400E012
